{
  "_format": "hh-sol-artifact-1",
  "contractName": "TOCABO",
  "sourceName": "contracts/TOCABO.sol",
  "abi": [
    {
      "inputs": [
        {
          "internalType": "string",
          "name": "initBaseURI",
          "type": "string"
        }
      ],
      "stateMutability": "nonpayable",
      "type": "constructor"
    },
    {
      "inputs": [],
      "name": "ApprovalCallerNotOwnerNorApproved",
      "type": "error"
    },
    {
      "inputs": [],
      "name": "ApprovalQueryForNonexistentToken",
      "type": "error"
    },
    {
      "inputs": [],
      "name": "ApprovalToCurrentOwner",
      "type": "error"
    },
    {
      "inputs": [],
      "name": "ApproveToCaller",
      "type": "error"
    },
    {
      "inputs": [],
      "name": "BalanceQueryForZeroAddress",
      "type": "error"
    },
    {
      "inputs": [],
      "name": "MintToZeroAddress",
      "type": "error"
    },
    {
      "inputs": [],
      "name": "MintZeroQuantity",
      "type": "error"
    },
    {
      "inputs": [],
      "name": "MintedQueryForZeroAddress",
      "type": "error"
    },
    {
      "inputs": [],
      "name": "OwnerQueryForNonexistentToken",
      "type": "error"
    },
    {
      "inputs": [],
      "name": "TransferCallerNotOwnerNorApproved",
      "type": "error"
    },
    {
      "inputs": [],
      "name": "TransferFromIncorrectOwner",
      "type": "error"
    },
    {
      "inputs": [],
      "name": "TransferToNonERC721ReceiverImplementer",
      "type": "error"
    },
    {
      "inputs": [],
      "name": "TransferToZeroAddress",
      "type": "error"
    },
    {
      "inputs": [],
      "name": "URIQueryForNonexistentToken",
      "type": "error"
    },
    {
      "anonymous": false,
      "inputs": [
        {
          "indexed": true,
          "internalType": "address",
          "name": "owner",
          "type": "address"
        },
        {
          "indexed": true,
          "internalType": "address",
          "name": "approved",
          "type": "address"
        },
        {
          "indexed": true,
          "internalType": "uint256",
          "name": "tokenId",
          "type": "uint256"
        }
      ],
      "name": "Approval",
      "type": "event"
    },
    {
      "anonymous": false,
      "inputs": [
        {
          "indexed": true,
          "internalType": "address",
          "name": "owner",
          "type": "address"
        },
        {
          "indexed": true,
          "internalType": "address",
          "name": "operator",
          "type": "address"
        },
        {
          "indexed": false,
          "internalType": "bool",
          "name": "approved",
          "type": "bool"
        }
      ],
      "name": "ApprovalForAll",
      "type": "event"
    },
    {
      "anonymous": false,
      "inputs": [
        {
          "indexed": false,
          "internalType": "string",
          "name": "newBaseURI",
          "type": "string"
        }
      ],
      "name": "BaseURIChanged",
      "type": "event"
    },
    {
      "anonymous": false,
      "inputs": [
        {
          "indexed": false,
          "internalType": "address",
          "name": "minter",
          "type": "address"
        },
        {
          "indexed": false,
          "internalType": "uint256",
          "name": "amount",
          "type": "uint256"
        }
      ],
      "name": "Minted",
      "type": "event"
    },
    {
      "anonymous": false,
      "inputs": [
        {
          "indexed": true,
          "internalType": "address",
          "name": "previousOwner",
          "type": "address"
        },
        {
          "indexed": true,
          "internalType": "address",
          "name": "newOwner",
          "type": "address"
        }
      ],
      "name": "OwnershipTransferred",
      "type": "event"
    },
    {
      "anonymous": false,
      "inputs": [
        {
          "indexed": false,
          "internalType": "enum TOCABO.Status",
          "name": "status",
          "type": "uint8"
        }
      ],
      "name": "StatusChanged",
      "type": "event"
    },
    {
      "anonymous": false,
      "inputs": [
        {
          "indexed": true,
          "internalType": "address",
          "name": "from",
          "type": "address"
        },
        {
          "indexed": true,
          "internalType": "address",
          "name": "to",
          "type": "address"
        },
        {
          "indexed": true,
          "internalType": "uint256",
          "name": "tokenId",
          "type": "uint256"
        }
      ],
      "name": "Transfer",
      "type": "event"
    },
    {
      "inputs": [],
      "name": "MAX_MINT_PER_ADDR",
      "outputs": [
        {
          "internalType": "uint256",
          "name": "",
          "type": "uint256"
        }
      ],
      "stateMutability": "view",
      "type": "function"
    },
    {
      "inputs": [],
      "name": "MAX_SUPPLY",
      "outputs": [
        {
          "internalType": "uint256",
          "name": "",
          "type": "uint256"
        }
      ],
      "stateMutability": "view",
      "type": "function"
    },
    {
      "inputs": [],
      "name": "PRICE",
      "outputs": [
        {
          "internalType": "uint256",
          "name": "",
          "type": "uint256"
        }
      ],
      "stateMutability": "view",
      "type": "function"
    },
    {
      "inputs": [
        {
          "internalType": "address",
          "name": "to",
          "type": "address"
        },
        {
          "internalType": "uint256",
          "name": "tokenId",
          "type": "uint256"
        }
      ],
      "name": "approve",
      "outputs": [],
      "stateMutability": "nonpayable",
      "type": "function"
    },
    {
      "inputs": [
        {
          "internalType": "address",
          "name": "owner",
          "type": "address"
        }
      ],
      "name": "balanceOf",
      "outputs": [
        {
          "internalType": "uint256",
          "name": "",
          "type": "uint256"
        }
      ],
      "stateMutability": "view",
      "type": "function"
    },
    {
      "inputs": [
        {
          "internalType": "uint256",
          "name": "tokenId",
          "type": "uint256"
        }
      ],
      "name": "getApproved",
      "outputs": [
        {
          "internalType": "address",
          "name": "",
          "type": "address"
        }
      ],
      "stateMutability": "view",
      "type": "function"
    },
    {
      "inputs": [
        {
          "internalType": "address",
          "name": "owner",
          "type": "address"
        },
        {
          "internalType": "address",
          "name": "operator",
          "type": "address"
        }
      ],
      "name": "isApprovedForAll",
      "outputs": [
        {
          "internalType": "bool",
          "name": "",
          "type": "bool"
        }
      ],
      "stateMutability": "view",
      "type": "function"
    },
    {
      "inputs": [
        {
          "internalType": "uint256",
          "name": "quantity",
          "type": "uint256"
        }
      ],
      "name": "mint",
      "outputs": [],
      "stateMutability": "payable",
      "type": "function"
    },
    {
      "inputs": [],
      "name": "name",
      "outputs": [
        {
          "internalType": "string",
          "name": "",
          "type": "string"
        }
      ],
      "stateMutability": "view",
      "type": "function"
    },
    {
      "inputs": [
        {
          "internalType": "address",
          "name": "owner",
          "type": "address"
        }
      ],
      "name": "numberMinted",
      "outputs": [
        {
          "internalType": "uint256",
          "name": "",
          "type": "uint256"
        }
      ],
      "stateMutability": "view",
      "type": "function"
    },
    {
      "inputs": [],
      "name": "owner",
      "outputs": [
        {
          "internalType": "address",
          "name": "",
          "type": "address"
        }
      ],
      "stateMutability": "view",
      "type": "function"
    },
    {
      "inputs": [
        {
          "internalType": "uint256",
          "name": "tokenId",
          "type": "uint256"
        }
      ],
      "name": "ownerOf",
      "outputs": [
        {
          "internalType": "address",
          "name": "",
          "type": "address"
        }
      ],
      "stateMutability": "view",
      "type": "function"
    },
    {
      "inputs": [],
      "name": "renounceOwnership",
      "outputs": [],
      "stateMutability": "nonpayable",
      "type": "function"
    },
    {
      "inputs": [
        {
          "internalType": "address",
          "name": "from",
          "type": "address"
        },
        {
          "internalType": "address",
          "name": "to",
          "type": "address"
        },
        {
          "internalType": "uint256",
          "name": "tokenId",
          "type": "uint256"
        }
      ],
      "name": "safeTransferFrom",
      "outputs": [],
      "stateMutability": "nonpayable",
      "type": "function"
    },
    {
      "inputs": [
        {
          "internalType": "address",
          "name": "from",
          "type": "address"
        },
        {
          "internalType": "address",
          "name": "to",
          "type": "address"
        },
        {
          "internalType": "uint256",
          "name": "tokenId",
          "type": "uint256"
        },
        {
          "internalType": "bytes",
          "name": "_data",
          "type": "bytes"
        }
      ],
      "name": "safeTransferFrom",
      "outputs": [],
      "stateMutability": "nonpayable",
      "type": "function"
    },
    {
      "inputs": [
        {
          "internalType": "address",
          "name": "operator",
          "type": "address"
        },
        {
          "internalType": "bool",
          "name": "approved",
          "type": "bool"
        }
      ],
      "name": "setApprovalForAll",
      "outputs": [],
      "stateMutability": "nonpayable",
      "type": "function"
    },
    {
      "inputs": [
        {
          "internalType": "string",
          "name": "newBaseURI",
          "type": "string"
        }
      ],
      "name": "setBaseURI",
      "outputs": [],
      "stateMutability": "nonpayable",
      "type": "function"
    },
    {
      "inputs": [
        {
          "internalType": "enum TOCABO.Status",
          "name": "_status",
          "type": "uint8"
        }
      ],
      "name": "setStatus",
      "outputs": [],
      "stateMutability": "nonpayable",
      "type": "function"
    },
    {
      "inputs": [],
      "name": "status",
      "outputs": [
        {
          "internalType": "enum TOCABO.Status",
          "name": "",
          "type": "uint8"
        }
      ],
      "stateMutability": "view",
      "type": "function"
    },
    {
      "inputs": [
        {
          "internalType": "bytes4",
          "name": "interfaceId",
          "type": "bytes4"
        }
      ],
      "name": "supportsInterface",
      "outputs": [
        {
          "internalType": "bool",
          "name": "",
          "type": "bool"
        }
      ],
      "stateMutability": "view",
      "type": "function"
    },
    {
      "inputs": [],
      "name": "symbol",
      "outputs": [
        {
          "internalType": "string",
          "name": "",
          "type": "string"
        }
      ],
      "stateMutability": "view",
      "type": "function"
    },
    {
      "inputs": [
        {
          "internalType": "uint256",
          "name": "tokenId",
          "type": "uint256"
        }
      ],
      "name": "tokenURI",
      "outputs": [
        {
          "internalType": "string",
          "name": "",
          "type": "string"
        }
      ],
      "stateMutability": "view",
      "type": "function"
    },
    {
      "inputs": [],
      "name": "totalSupply",
      "outputs": [
        {
          "internalType": "uint256",
          "name": "",
          "type": "uint256"
        }
      ],
      "stateMutability": "view",
      "type": "function"
    },
    {
      "inputs": [
        {
          "internalType": "address",
          "name": "from",
          "type": "address"
        },
        {
          "internalType": "address",
          "name": "to",
          "type": "address"
        },
        {
          "internalType": "uint256",
          "name": "tokenId",
          "type": "uint256"
        }
      ],
      "name": "transferFrom",
      "outputs": [],
      "stateMutability": "nonpayable",
      "type": "function"
    },
    {
      "inputs": [
        {
          "internalType": "address",
          "name": "newOwner",
          "type": "address"
        }
      ],
      "name": "transferOwnership",
      "outputs": [],
      "stateMutability": "nonpayable",
      "type": "function"
    },
    {
      "inputs": [
        {
          "internalType": "address payable",
          "name": "recipient",
          "type": "address"
        }
      ],
      "name": "withdraw",
      "outputs": [],
      "stateMutability": "nonpayable",
      "type": "function"
    }
  ],
  "bytecode": "0x60806040523480156200001157600080fd5b5060405162003e0a38038062003e0a833981810160405281019062000037919062000322565b6040518060400160405280600681526020017f544f4341424f00000000000000000000000000000000000000000000000000008152506040518060400160405280600681526020017f544f4341424f00000000000000000000000000000000000000000000000000008152508160029080519060200190620000bb92919062000200565b508060039080519060200190620000d492919062000200565b50620000e56200012d60201b60201c565b60008190555050506200010d620001016200013260201b60201c565b6200013a60201b60201c565b80600990805190602001906200012592919062000200565b5050620004d7565b600090565b600033905090565b6000600860009054906101000a900473ffffffffffffffffffffffffffffffffffffffff16905081600860006101000a81548173ffffffffffffffffffffffffffffffffffffffff021916908373ffffffffffffffffffffffffffffffffffffffff1602179055508173ffffffffffffffffffffffffffffffffffffffff168173ffffffffffffffffffffffffffffffffffffffff167f8be0079c531659141344cd1fd0a4f28419497f9722a3daafe3b4186f6b6457e060405160405180910390a35050565b8280546200020e90620003fc565b90600052602060002090601f0160209004810192826200023257600085556200027e565b82601f106200024d57805160ff19168380011785556200027e565b828001600101855582156200027e579182015b828111156200027d57825182559160200191906001019062000260565b5b5090506200028d919062000291565b5090565b5b80821115620002ac57600081600090555060010162000292565b5090565b6000620002c7620002c18462000390565b62000367565b905082815260208101848484011115620002e057600080fd5b620002ed848285620003c6565b509392505050565b600082601f8301126200030757600080fd5b815162000319848260208601620002b0565b91505092915050565b6000602082840312156200033557600080fd5b600082015167ffffffffffffffff8111156200035057600080fd5b6200035e84828501620002f5565b91505092915050565b60006200037362000386565b905062000381828262000432565b919050565b6000604051905090565b600067ffffffffffffffff821115620003ae57620003ad62000497565b5b620003b982620004c6565b9050602081019050919050565b60005b83811015620003e6578082015181840152602081019050620003c9565b83811115620003f6576000848401525b50505050565b600060028204905060018216806200041557607f821691505b602082108114156200042c576200042b62000468565b5b50919050565b6200043d82620004c6565b810181811067ffffffffffffffff821117156200045f576200045e62000497565b5b80604052505050565b7f4e487b7100000000000000000000000000000000000000000000000000000000600052602260045260246000fd5b7f4e487b7100000000000000000000000000000000000000000000000000000000600052604160045260246000fd5b6000601f19601f8301169050919050565b61392380620004e76000396000f3fe6080604052600436106101815760003560e01c80636352211e116100d1578063a0712d681161008a578063c87b56dd11610064578063c87b56dd1461054d578063dc33e6811461058a578063e985e9c5146105c7578063f2fde38b1461060457610181565b8063a0712d68146104df578063a22cb465146104fb578063b88d4fde1461052457610181565b80636352211e146103cd57806370a082311461040a578063715018a6146104475780638d859f3e1461045e5780638da5cb5b1461048957806395d89b41146104b457610181565b8063200d2ed21161013e57806332cb6b0c1161011857806332cb6b0c1461032757806342842e0e1461035257806351cff8d91461037b57806355f804b3146103a457610181565b8063200d2ed2146102aa57806323b872dd146102d55780632e49d78b146102fe57610181565b806301ffc9a71461018657806306fdde03146101c3578063081812fc146101ee578063095ea7b31461022b578063161548621461025457806318160ddd1461027f575b600080fd5b34801561019257600080fd5b506101ad60048036038101906101a89190612c64565b61062d565b6040516101ba919061305d565b60405180910390f35b3480156101cf57600080fd5b506101d861070f565b6040516101e591906130b7565b60405180910390f35b3480156101fa57600080fd5b5061021560048036038101906102109190612d24565b6107a1565b6040516102229190612fcd565b60405180910390f35b34801561023757600080fd5b50610252600480360381019061024d9190612c28565b61081d565b005b34801561026057600080fd5b50610269610928565b60405161027691906131d9565b60405180910390f35b34801561028b57600080fd5b5061029461092d565b6040516102a191906131d9565b60405180910390f35b3480156102b657600080fd5b506102bf610944565b6040516102cc9190613078565b60405180910390f35b3480156102e157600080fd5b506102fc60048036038101906102f79190612b22565b610957565b005b34801561030a57600080fd5b5061032560048036038101906103209190612cb6565b610967565b005b34801561033357600080fd5b5061033c610a7c565b60405161034991906131d9565b60405180910390f35b34801561035e57600080fd5b5061037960048036038101906103749190612b22565b610a82565b005b34801561038757600080fd5b506103a2600480360381019061039d9190612abd565b610aa2565b005b3480156103b057600080fd5b506103cb60048036038101906103c69190612cdf565b610bd4565b005b3480156103d957600080fd5b506103f460048036038101906103ef9190612d24565b610c9f565b6040516104019190612fcd565b60405180910390f35b34801561041657600080fd5b50610431600480360381019061042c9190612a94565b610cb5565b60405161043e91906131d9565b60405180910390f35b34801561045357600080fd5b5061045c610d85565b005b34801561046a57600080fd5b50610473610e0d565b60405161048091906131d9565b60405180910390f35b34801561049557600080fd5b5061049e610e18565b6040516104ab9190612fcd565b60405180910390f35b3480156104c057600080fd5b506104c9610e42565b6040516104d691906130b7565b60405180910390f35b6104f960048036038101906104f49190612d24565b610ed4565b005b34801561050757600080fd5b50610522600480360381019061051d9190612bec565b61113e565b005b34801561053057600080fd5b5061054b60048036038101906105469190612b71565b6112b6565b005b34801561055957600080fd5b50610574600480360381019061056f9190612d24565b611332565b60405161058191906130b7565b60405180910390f35b34801561059657600080fd5b506105b160048036038101906105ac9190612a94565b6113d1565b6040516105be91906131d9565b60405180910390f35b3480156105d357600080fd5b506105ee60048036038101906105e99190612ae6565b6113e3565b6040516105fb919061305d565b60405180910390f35b34801561061057600080fd5b5061062b60048036038101906106269190612a94565b611477565b005b60007f80ac58cd000000000000000000000000000000000000000000000000000000007bffffffffffffffffffffffffffffffffffffffffffffffffffffffff1916827bffffffffffffffffffffffffffffffffffffffffffffffffffffffff191614806106f857507f5b5e139f000000000000000000000000000000000000000000000000000000007bffffffffffffffffffffffffffffffffffffffffffffffffffffffff1916827bffffffffffffffffffffffffffffffffffffffffffffffffffffffff1916145b8061070857506107078261156f565b5b9050919050565b60606002805461071e9061349a565b80601f016020809104026020016040519081016040528092919081815260200182805461074a9061349a565b80156107975780601f1061076c57610100808354040283529160200191610797565b820191906000526020600020905b81548152906001019060200180831161077a57829003601f168201915b5050505050905090565b60006107ac826115d9565b6107e2576040517fcf4700e400000000000000000000000000000000000000000000000000000000815260040160405180910390fd5b6006600083815260200190815260200160002060009054906101000a900473ffffffffffffffffffffffffffffffffffffffff169050919050565b600061082882610c9f565b90508073ffffffffffffffffffffffffffffffffffffffff168373ffffffffffffffffffffffffffffffffffffffff161415610890576040517f943f7b8c00000000000000000000000000000000000000000000000000000000815260040160405180910390fd5b8073ffffffffffffffffffffffffffffffffffffffff166108af611627565b73ffffffffffffffffffffffffffffffffffffffff16141580156108e157506108df816108da611627565b6113e3565b155b15610918576040517fcfb3b94200000000000000000000000000000000000000000000000000000000815260040160405180910390fd5b61092383838361162f565b505050565b600a81565b60006109376116e1565b6001546000540303905090565b600860149054906101000a900460ff1681565b6109628383836116e6565b505050565b61096f611627565b73ffffffffffffffffffffffffffffffffffffffff1661098d610e18565b73ffffffffffffffffffffffffffffffffffffffff16146109e3576040517f08c379a00000000000000000000000000000000000000000000000000000000081526004016109da90613199565b60405180910390fd5b80600860146101000a81548160ff02191690836002811115610a2e577f4e487b7100000000000000000000000000000000000000000000000000000000600052602160045260246000fd5b02179055507fafa725e7f44cadb687a7043853fa1a7e7b8f0da74ce87ec546e9420f04da8c1e600860149054906101000a900460ff16604051610a719190613078565b60405180910390a150565b61162281565b610a9d838383604051806020016040528060008152506112b6565b505050565b610aaa611627565b73ffffffffffffffffffffffffffffffffffffffff16610ac8610e18565b73ffffffffffffffffffffffffffffffffffffffff1614610b1e576040517f08c379a0000000000000000000000000000000000000000000000000000000008152600401610b1590613199565b60405180910390fd5b600047905060008273ffffffffffffffffffffffffffffffffffffffff1682604051610b4990612fb8565b60006040518083038185875af1925050503d8060008114610b86576040519150601f19603f3d011682016040523d82523d6000602084013e610b8b565b606091505b5050905080610bcf576040517f08c379a0000000000000000000000000000000000000000000000000000000008152600401610bc690613119565b60405180910390fd5b505050565b610bdc611627565b73ffffffffffffffffffffffffffffffffffffffff16610bfa610e18565b73ffffffffffffffffffffffffffffffffffffffff1614610c50576040517f08c379a0000000000000000000000000000000000000000000000000000000008152600401610c4790613199565b60405180910390fd5b818160099190610c61929190612869565b507f5411e8ebf1636d9e83d5fc4900bf80cbac82e8790da2a4c94db4895e889eedf68282604051610c93929190613093565b60405180910390a15050565b6000610caa82611bd7565b600001519050919050565b60008073ffffffffffffffffffffffffffffffffffffffff168273ffffffffffffffffffffffffffffffffffffffff161415610d1d576040517f8f4eb60400000000000000000000000000000000000000000000000000000000815260040160405180910390fd5b600560008373ffffffffffffffffffffffffffffffffffffffff1673ffffffffffffffffffffffffffffffffffffffff16815260200190815260200160002060000160009054906101000a900467ffffffffffffffff1667ffffffffffffffff169050919050565b610d8d611627565b73ffffffffffffffffffffffffffffffffffffffff16610dab610e18565b73ffffffffffffffffffffffffffffffffffffffff1614610e01576040517f08c379a0000000000000000000000000000000000000000000000000000000008152600401610df890613199565b60405180910390fd5b610e0b6000611e66565b565b660e35fa931a000081565b6000600860009054906101000a900473ffffffffffffffffffffffffffffffffffffffff16905090565b606060038054610e519061349a565b80601f0160208091040260200160405190810160405280929190818152602001828054610e7d9061349a565b8015610eca5780601f10610e9f57610100808354040283529160200191610eca565b820191906000526020600020905b815481529060010190602001808311610ead57829003601f168201915b5050505050905090565b60016002811115610f0e577f4e487b7100000000000000000000000000000000000000000000000000000000600052602160045260246000fd5b600860149054906101000a900460ff166002811115610f56577f4e487b7100000000000000000000000000000000000000000000000000000000600052602160045260246000fd5b14610f96576040517f08c379a0000000000000000000000000000000000000000000000000000000008152600401610f8d90613179565b60405180910390fd5b3373ffffffffffffffffffffffffffffffffffffffff163273ffffffffffffffffffffffffffffffffffffffff1614611004576040517f08c379a0000000000000000000000000000000000000000000000000000000008152600401610ffb906131b9565b60405180910390fd5b600a81611010336113d1565b61101a9190613298565b111561105b576040517f08c379a000000000000000000000000000000000000000000000000000000000815260040161105290613159565b60405180910390fd5b6116228161106761092d565b6110719190613298565b11156110b2576040517f08c379a00000000000000000000000000000000000000000000000000000000081526004016110a990613139565b60405180910390fd5b6110bc3382611f2c565b610258816110c861092d565b6110d29190613298565b116110e6576110e16000611f4a565b611102565b61110181660e35fa931a00006110fc919061331f565b611f4a565b5b7f30385c845b448a36257a6a1716e6ad2e1bc2cbe333cde1e69fe849ad6511adfe3382604051611133929190613034565b60405180910390a150565b611146611627565b73ffffffffffffffffffffffffffffffffffffffff168273ffffffffffffffffffffffffffffffffffffffff1614156111ab576040517fb06307db00000000000000000000000000000000000000000000000000000000815260040160405180910390fd5b80600760006111b8611627565b73ffffffffffffffffffffffffffffffffffffffff1673ffffffffffffffffffffffffffffffffffffffff16815260200190815260200160002060008473ffffffffffffffffffffffffffffffffffffffff1673ffffffffffffffffffffffffffffffffffffffff16815260200190815260200160002060006101000a81548160ff0219169083151502179055508173ffffffffffffffffffffffffffffffffffffffff16611265611627565b73ffffffffffffffffffffffffffffffffffffffff167f17307eab39ab6107e8899845ad3d59bd9653f200f220920489ca2b5937696c31836040516112aa919061305d565b60405180910390a35050565b6112c18484846116e6565b6112e08373ffffffffffffffffffffffffffffffffffffffff16611feb565b80156112f557506112f38484848461200e565b155b1561132c576040517fd1a57ed600000000000000000000000000000000000000000000000000000000815260040160405180910390fd5b50505050565b606061133d826115d9565b611373576040517fa14c4b5000000000000000000000000000000000000000000000000000000000815260040160405180910390fd5b600061137d61216e565b905060008151141561139e57604051806020016040528060008152506113c9565b806113a884612200565b6040516020016113b9929190612f94565b6040516020818303038152906040525b915050919050565b60006113dc826123ad565b9050919050565b6000600760008473ffffffffffffffffffffffffffffffffffffffff1673ffffffffffffffffffffffffffffffffffffffff16815260200190815260200160002060008373ffffffffffffffffffffffffffffffffffffffff1673ffffffffffffffffffffffffffffffffffffffff16815260200190815260200160002060009054906101000a900460ff16905092915050565b61147f611627565b73ffffffffffffffffffffffffffffffffffffffff1661149d610e18565b73ffffffffffffffffffffffffffffffffffffffff16146114f3576040517f08c379a00000000000000000000000000000000000000000000000000000000081526004016114ea90613199565b60405180910390fd5b600073ffffffffffffffffffffffffffffffffffffffff168173ffffffffffffffffffffffffffffffffffffffff161415611563576040517f08c379a000000000000000000000000000000000000000000000000000000000815260040161155a906130d9565b60405180910390fd5b61156c81611e66565b50565b60007f01ffc9a7000000000000000000000000000000000000000000000000000000007bffffffffffffffffffffffffffffffffffffffffffffffffffffffff1916827bffffffffffffffffffffffffffffffffffffffffffffffffffffffff1916149050919050565b6000816115e46116e1565b111580156115f3575060005482105b8015611620575060046000838152602001908152602001600020600001601c9054906101000a900460ff16155b9050919050565b600033905090565b826006600084815260200190815260200160002060006101000a81548173ffffffffffffffffffffffffffffffffffffffff021916908373ffffffffffffffffffffffffffffffffffffffff160217905550818373ffffffffffffffffffffffffffffffffffffffff168273ffffffffffffffffffffffffffffffffffffffff167f8c5be1e5ebec7d5bd14f71427d1e84f3dd0314c0f7b2291e5b200ac8c7c3b92560405160405180910390a4505050565b600090565b60006116f182611bd7565b90506000816000015173ffffffffffffffffffffffffffffffffffffffff16611718611627565b73ffffffffffffffffffffffffffffffffffffffff16148061174b575061174a8260000151611745611627565b6113e3565b5b806117905750611759611627565b73ffffffffffffffffffffffffffffffffffffffff16611778846107a1565b73ffffffffffffffffffffffffffffffffffffffff16145b9050806117c9576040517f59c896be00000000000000000000000000000000000000000000000000000000815260040160405180910390fd5b8473ffffffffffffffffffffffffffffffffffffffff16826000015173ffffffffffffffffffffffffffffffffffffffff1614611832576040517fa114810000000000000000000000000000000000000000000000000000000000815260040160405180910390fd5b600073ffffffffffffffffffffffffffffffffffffffff168473ffffffffffffffffffffffffffffffffffffffff161415611899576040517fea553b3400000000000000000000000000000000000000000000000000000000815260040160405180910390fd5b6118a6858585600161247d565b6118b6600084846000015161162f565b6001600560008773ffffffffffffffffffffffffffffffffffffffff1673ffffffffffffffffffffffffffffffffffffffff16815260200190815260200160002060000160008282829054906101000a900467ffffffffffffffff160392506101000a81548167ffffffffffffffff021916908367ffffffffffffffff1602179055506001600560008673ffffffffffffffffffffffffffffffffffffffff1673ffffffffffffffffffffffffffffffffffffffff16815260200190815260200160002060000160008282829054906101000a900467ffffffffffffffff160192506101000a81548167ffffffffffffffff021916908367ffffffffffffffff160217905550836004600085815260200190815260200160002060000160006101000a81548173ffffffffffffffffffffffffffffffffffffffff021916908373ffffffffffffffffffffffffffffffffffffffff160217905550426004600085815260200190815260200160002060000160146101000a81548167ffffffffffffffff021916908367ffffffffffffffff1602179055506000600184019050600073ffffffffffffffffffffffffffffffffffffffff166004600083815260200190815260200160002060000160009054906101000a900473ffffffffffffffffffffffffffffffffffffffff1673ffffffffffffffffffffffffffffffffffffffff161415611b6757600054811015611b665782600001516004600083815260200190815260200160002060000160006101000a81548173ffffffffffffffffffffffffffffffffffffffff021916908373ffffffffffffffffffffffffffffffffffffffff16021790555082602001516004600083815260200190815260200160002060000160146101000a81548167ffffffffffffffff021916908367ffffffffffffffff1602179055505b5b50828473ffffffffffffffffffffffffffffffffffffffff168673ffffffffffffffffffffffffffffffffffffffff167fddf252ad1be2c89b69c2b068fc378daa952ba7f163c4a11628f55a4df523b3ef60405160405180910390a4611bd08585856001612483565b5050505050565b611bdf6128ef565b600082905080611bed6116e1565b11158015611bfc575060005481105b15611e2f576000600460008381526020019081526020016000206040518060600160405290816000820160009054906101000a900473ffffffffffffffffffffffffffffffffffffffff1673ffffffffffffffffffffffffffffffffffffffff1673ffffffffffffffffffffffffffffffffffffffff1681526020016000820160149054906101000a900467ffffffffffffffff1667ffffffffffffffff1667ffffffffffffffff16815260200160008201601c9054906101000a900460ff16151515158152505090508060400151611e2d57600073ffffffffffffffffffffffffffffffffffffffff16816000015173ffffffffffffffffffffffffffffffffffffffff1614611d11578092505050611e61565b5b600115611e2c57818060019003925050600460008381526020019081526020016000206040518060600160405290816000820160009054906101000a900473ffffffffffffffffffffffffffffffffffffffff1673ffffffffffffffffffffffffffffffffffffffff1673ffffffffffffffffffffffffffffffffffffffff1681526020016000820160149054906101000a900467ffffffffffffffff1667ffffffffffffffff1667ffffffffffffffff16815260200160008201601c9054906101000a900460ff1615151515815250509050600073ffffffffffffffffffffffffffffffffffffffff16816000015173ffffffffffffffffffffffffffffffffffffffff1614611e27578092505050611e61565b611d12565b5b505b6040517fdf2d9b4200000000000000000000000000000000000000000000000000000000815260040160405180910390fd5b919050565b6000600860009054906101000a900473ffffffffffffffffffffffffffffffffffffffff16905081600860006101000a81548173ffffffffffffffffffffffffffffffffffffffff021916908373ffffffffffffffffffffffffffffffffffffffff1602179055508173ffffffffffffffffffffffffffffffffffffffff168173ffffffffffffffffffffffffffffffffffffffff167f8be0079c531659141344cd1fd0a4f28419497f9722a3daafe3b4186f6b6457e060405160405180910390a35050565b611f46828260405180602001604052806000815250612489565b5050565b80341015611f8d576040517f08c379a0000000000000000000000000000000000000000000000000000000008152600401611f84906130f9565b60405180910390fd5b80341115611fe8573373ffffffffffffffffffffffffffffffffffffffff166108fc8234611fbb9190613379565b9081150290604051600060405180830381858888f19350505050158015611fe6573d6000803e3d6000fd5b505b50565b6000808273ffffffffffffffffffffffffffffffffffffffff163b119050919050565b60008373ffffffffffffffffffffffffffffffffffffffff1663150b7a02612034611627565b8786866040518563ffffffff1660e01b81526004016120569493929190612fe8565b602060405180830381600087803b15801561207057600080fd5b505af19250505080156120a157506040513d601f19601f8201168201806040525081019061209e9190612c8d565b60015b61211b573d80600081146120d1576040519150601f19603f3d011682016040523d82523d6000602084013e6120d6565b606091505b50600081511415612113576040517fd1a57ed600000000000000000000000000000000000000000000000000000000815260040160405180910390fd5b805181602001fd5b63150b7a0260e01b7bffffffffffffffffffffffffffffffffffffffffffffffffffffffff1916817bffffffffffffffffffffffffffffffffffffffffffffffffffffffff191614915050949350505050565b60606009805461217d9061349a565b80601f01602080910402602001604051908101604052809291908181526020018280546121a99061349a565b80156121f65780601f106121cb576101008083540402835291602001916121f6565b820191906000526020600020905b8154815290600101906020018083116121d957829003601f168201915b5050505050905090565b60606000821415612248576040518060400160405280600181526020017f300000000000000000000000000000000000000000000000000000000000000081525090506123a8565b600082905060005b6000821461227a578080612263906134fd565b915050600a8261227391906132ee565b9150612250565b60008167ffffffffffffffff8111156122bc577f4e487b7100000000000000000000000000000000000000000000000000000000600052604160045260246000fd5b6040519080825280601f01601f1916602001820160405280156122ee5781602001600182028036833780820191505090505b5090505b600085146123a1576001826123079190613379565b9150600a856123169190613546565b60306123229190613298565b60f81b81838151811061235e577f4e487b7100000000000000000000000000000000000000000000000000000000600052603260045260246000fd5b60200101907effffffffffffffffffffffffffffffffffffffffffffffffffffffffffffff1916908160001a905350600a8561239a91906132ee565b94506122f2565b8093505050505b919050565b60008073ffffffffffffffffffffffffffffffffffffffff168273ffffffffffffffffffffffffffffffffffffffff161415612415576040517f35ebb31900000000000000000000000000000000000000000000000000000000815260040160405180910390fd5b600560008373ffffffffffffffffffffffffffffffffffffffff1673ffffffffffffffffffffffffffffffffffffffff16815260200190815260200160002060000160089054906101000a900467ffffffffffffffff1667ffffffffffffffff169050919050565b50505050565b50505050565b612496838383600161249b565b505050565b600080549050600073ffffffffffffffffffffffffffffffffffffffff168573ffffffffffffffffffffffffffffffffffffffff161415612508576040517f2e07630000000000000000000000000000000000000000000000000000000000815260040160405180910390fd5b6000841415612543576040517fb562e8dd00000000000000000000000000000000000000000000000000000000815260040160405180910390fd5b612550600086838761247d565b83600560008773ffffffffffffffffffffffffffffffffffffffff1673ffffffffffffffffffffffffffffffffffffffff16815260200190815260200160002060000160008282829054906101000a900467ffffffffffffffff160192506101000a81548167ffffffffffffffff021916908367ffffffffffffffff16021790555083600560008773ffffffffffffffffffffffffffffffffffffffff1673ffffffffffffffffffffffffffffffffffffffff16815260200190815260200160002060000160088282829054906101000a900467ffffffffffffffff160192506101000a81548167ffffffffffffffff021916908367ffffffffffffffff160217905550846004600083815260200190815260200160002060000160006101000a81548173ffffffffffffffffffffffffffffffffffffffff021916908373ffffffffffffffffffffffffffffffffffffffff160217905550426004600083815260200190815260200160002060000160146101000a81548167ffffffffffffffff021916908367ffffffffffffffff16021790555060008190506000858201905083801561271a57506127198773ffffffffffffffffffffffffffffffffffffffff16611feb565b5b156127e0575b818773ffffffffffffffffffffffffffffffffffffffff16600073ffffffffffffffffffffffffffffffffffffffff167fddf252ad1be2c89b69c2b068fc378daa952ba7f163c4a11628f55a4df523b3ef60405160405180910390a461278f600088848060010195508861200e565b6127c5576040517fd1a57ed600000000000000000000000000000000000000000000000000000000815260040160405180910390fd5b808214156127205782600054146127db57600080fd5b61284c565b5b818060010192508773ffffffffffffffffffffffffffffffffffffffff16600073ffffffffffffffffffffffffffffffffffffffff167fddf252ad1be2c89b69c2b068fc378daa952ba7f163c4a11628f55a4df523b3ef60405160405180910390a4808214156127e1575b8160008190555050506128626000868387612483565b5050505050565b8280546128759061349a565b90600052602060002090601f01602090048101928261289757600085556128de565b82601f106128b057803560ff19168380011785556128de565b828001600101855582156128de579182015b828111156128dd5782358255916020019190600101906128c2565b5b5090506128eb9190612932565b5090565b6040518060600160405280600073ffffffffffffffffffffffffffffffffffffffff168152602001600067ffffffffffffffff1681526020016000151581525090565b5b8082111561294b576000816000905550600101612933565b5090565b600061296261295d84613219565b6131f4565b90508281526020810184848401111561297a57600080fd5b612985848285613458565b509392505050565b60008135905061299c8161386a565b92915050565b6000813590506129b181613881565b92915050565b6000813590506129c681613898565b92915050565b6000813590506129db816138af565b92915050565b6000815190506129f0816138af565b92915050565b600082601f830112612a0757600080fd5b8135612a1784826020860161294f565b91505092915050565b600081359050612a2f816138c6565b92915050565b60008083601f840112612a4757600080fd5b8235905067ffffffffffffffff811115612a6057600080fd5b602083019150836001820283011115612a7857600080fd5b9250929050565b600081359050612a8e816138d6565b92915050565b600060208284031215612aa657600080fd5b6000612ab48482850161298d565b91505092915050565b600060208284031215612acf57600080fd5b6000612add848285016129a2565b91505092915050565b60008060408385031215612af957600080fd5b6000612b078582860161298d565b9250506020612b188582860161298d565b9150509250929050565b600080600060608486031215612b3757600080fd5b6000612b458682870161298d565b9350506020612b568682870161298d565b9250506040612b6786828701612a7f565b9150509250925092565b60008060008060808587031215612b8757600080fd5b6000612b958782880161298d565b9450506020612ba68782880161298d565b9350506040612bb787828801612a7f565b925050606085013567ffffffffffffffff811115612bd457600080fd5b612be0878288016129f6565b91505092959194509250565b60008060408385031215612bff57600080fd5b6000612c0d8582860161298d565b9250506020612c1e858286016129b7565b9150509250929050565b60008060408385031215612c3b57600080fd5b6000612c498582860161298d565b9250506020612c5a85828601612a7f565b9150509250929050565b600060208284031215612c7657600080fd5b6000612c84848285016129cc565b91505092915050565b600060208284031215612c9f57600080fd5b6000612cad848285016129e1565b91505092915050565b600060208284031215612cc857600080fd5b6000612cd684828501612a20565b91505092915050565b60008060208385031215612cf257600080fd5b600083013567ffffffffffffffff811115612d0c57600080fd5b612d1885828601612a35565b92509250509250929050565b600060208284031215612d3657600080fd5b6000612d4484828501612a7f565b91505092915050565b612d56816133ad565b82525050565b612d65816133d1565b82525050565b6000612d768261324a565b612d808185613260565b9350612d90818560208601613467565b612d9981613662565b840191505092915050565b612dad81613446565b82525050565b6000612dbf838561327c565b9350612dcc838584613458565b612dd583613662565b840190509392505050565b6000612deb82613255565b612df5818561327c565b9350612e05818560208601613467565b612e0e81613662565b840191505092915050565b6000612e2482613255565b612e2e818561328d565b9350612e3e818560208601613467565b80840191505092915050565b6000612e5760268361327c565b9150612e6282613673565b604082019050919050565b6000612e7a60178361327c565b9150612e85826136c2565b602082019050919050565b6000612e9d60298361327c565b9150612ea8826136eb565b604082019050919050565b6000612ec0601c8361327c565b9150612ecb8261373a565b602082019050919050565b6000612ee360228361327c565b9150612eee82613763565b604082019050919050565b6000612f0660188361327c565b9150612f11826137b2565b602082019050919050565b6000612f2960208361327c565b9150612f34826137db565b602082019050919050565b6000612f4c600083613271565b9150612f5782613804565b600082019050919050565b6000612f6f60228361327c565b9150612f7a82613807565b604082019050919050565b612f8e8161343c565b82525050565b6000612fa08285612e19565b9150612fac8284612e19565b91508190509392505050565b6000612fc382612f3f565b9150819050919050565b6000602082019050612fe26000830184612d4d565b92915050565b6000608082019050612ffd6000830187612d4d565b61300a6020830186612d4d565b6130176040830185612f85565b81810360608301526130298184612d6b565b905095945050505050565b60006040820190506130496000830185612d4d565b6130566020830184612f85565b9392505050565b60006020820190506130726000830184612d5c565b92915050565b600060208201905061308d6000830184612da4565b92915050565b600060208201905081810360008301526130ae818486612db3565b90509392505050565b600060208201905081810360008301526130d18184612de0565b905092915050565b600060208201905081810360008301526130f281612e4a565b9050919050565b6000602082019050818103600083015261311281612e6d565b9050919050565b6000602082019050818103600083015261313281612e90565b9050919050565b6000602082019050818103600083015261315281612eb3565b9050919050565b6000602082019050818103600083015261317281612ed6565b9050919050565b6000602082019050818103600083015261319281612ef9565b9050919050565b600060208201905081810360008301526131b281612f1c565b9050919050565b600060208201905081810360008301526131d281612f62565b9050919050565b60006020820190506131ee6000830184612f85565b92915050565b60006131fe61320f565b905061320a82826134cc565b919050565b6000604051905090565b600067ffffffffffffffff82111561323457613233613633565b5b61323d82613662565b9050602081019050919050565b600081519050919050565b600081519050919050565b600082825260208201905092915050565b600081905092915050565b600082825260208201905092915050565b600081905092915050565b60006132a38261343c565b91506132ae8361343c565b9250827fffffffffffffffffffffffffffffffffffffffffffffffffffffffffffffffff038211156132e3576132e2613577565b5b828201905092915050565b60006132f98261343c565b91506133048361343c565b925082613314576133136135a6565b5b828204905092915050565b600061332a8261343c565b91506133358361343c565b9250817fffffffffffffffffffffffffffffffffffffffffffffffffffffffffffffffff048311821515161561336e5761336d613577565b5b828202905092915050565b60006133848261343c565b915061338f8361343c565b9250828210156133a2576133a1613577565b5b828203905092915050565b60006133b88261341c565b9050919050565b60006133ca8261341c565b9050919050565b60008115159050919050565b60007fffffffff0000000000000000000000000000000000000000000000000000000082169050919050565b600081905061341782613856565b919050565b600073ffffffffffffffffffffffffffffffffffffffff82169050919050565b6000819050919050565b600061345182613409565b9050919050565b82818337600083830152505050565b60005b8381101561348557808201518184015260208101905061346a565b83811115613494576000848401525b50505050565b600060028204905060018216806134b257607f821691505b602082108114156134c6576134c5613604565b5b50919050565b6134d582613662565b810181811067ffffffffffffffff821117156134f4576134f3613633565b5b80604052505050565b60006135088261343c565b91507fffffffffffffffffffffffffffffffffffffffffffffffffffffffffffffffff82141561353b5761353a613577565b5b600182019050919050565b60006135518261343c565b915061355c8361343c565b92508261356c5761356b6135a6565b5b828206905092915050565b7f4e487b7100000000000000000000000000000000000000000000000000000000600052601160045260246000fd5b7f4e487b7100000000000000000000000000000000000000000000000000000000600052601260045260246000fd5b7f4e487b7100000000000000000000000000000000000000000000000000000000600052602160045260246000fd5b7f4e487b7100000000000000000000000000000000000000000000000000000000600052602260045260246000fd5b7f4e487b7100000000000000000000000000000000000000000000000000000000600052604160045260246000fd5b6000601f19601f8301169050919050565b7f4f776e61626c653a206e6577206f776e657220697320746865207a65726f206160008201527f6464726573730000000000000000000000000000000000000000000000000000602082015250565b7f544f4341424f3a204e6f7420656e6f756768204554482e000000000000000000600082015250565b7f544f4341424f3a204e4654732068617665206265656e20636f6d706c6574656c60008201527f79206d696e7465642e0000000000000000000000000000000000000000000000602082015250565b7f544f4341424f3a204e6f7420656e6f756768207175616e746974792e00000000600082015250565b7f544f4341424f3a2054686973206973206d6f7265207468616e20616c6c6f776560008201527f642e000000000000000000000000000000000000000000000000000000000000602082015250565b7f544f4341424f3a204e6f742073746172746564207965742e0000000000000000600082015250565b7f4f776e61626c653a2063616c6c6572206973206e6f7420746865206f776e6572600082015250565b50565b7f544f4341424f3a20436f6e74726163742063616c6c206e6f7420616c6c6f776560008201527f642e000000000000000000000000000000000000000000000000000000000000602082015250565b60038110613867576138666135d5565b5b50565b613873816133ad565b811461387e57600080fd5b50565b61388a816133bf565b811461389557600080fd5b50565b6138a1816133d1565b81146138ac57600080fd5b50565b6138b8816133dd565b81146138c357600080fd5b50565b600381106138d357600080fd5b50565b6138df8161343c565b81146138ea57600080fd5b5056fea2646970667358221220227fbe0dbc5c5304fde29abb1fd887c7a7d99f138e773bcb08545fe0bf039f3364736f6c63430008040033",
  "linkReferences": {},
  "deployedLinkReferences": {}
}