{
  "_format": "hh-sol-artifact-1",
  "contractName": "BOTTY",
  "sourceName": "contracts/BOTTY.sol",
  "abi": [
    {
      "inputs": [
        {
          "internalType": "string",
          "name": "initBaseURI",
          "type": "string"
        }
      ],
      "stateMutability": "nonpayable",
      "type": "constructor"
    },
    {
      "inputs": [],
      "name": "ApprovalCallerNotOwnerNorApproved",
      "type": "error"
    },
    {
      "inputs": [],
      "name": "ApprovalQueryForNonexistentToken",
      "type": "error"
    },
    {
      "inputs": [],
      "name": "ApprovalToCurrentOwner",
      "type": "error"
    },
    {
      "inputs": [],
      "name": "ApproveToCaller",
      "type": "error"
    },
    {
      "inputs": [],
      "name": "BalanceQueryForZeroAddress",
      "type": "error"
    },
    {
      "inputs": [],
      "name": "MintToZeroAddress",
      "type": "error"
    },
    {
      "inputs": [],
      "name": "MintZeroQuantity",
      "type": "error"
    },
    {
      "inputs": [],
      "name": "MintedQueryForZeroAddress",
      "type": "error"
    },
    {
      "inputs": [],
      "name": "OwnerQueryForNonexistentToken",
      "type": "error"
    },
    {
      "inputs": [],
      "name": "TransferCallerNotOwnerNorApproved",
      "type": "error"
    },
    {
      "inputs": [],
      "name": "TransferFromIncorrectOwner",
      "type": "error"
    },
    {
      "inputs": [],
      "name": "TransferToNonERC721ReceiverImplementer",
      "type": "error"
    },
    {
      "inputs": [],
      "name": "TransferToZeroAddress",
      "type": "error"
    },
    {
      "inputs": [],
      "name": "URIQueryForNonexistentToken",
      "type": "error"
    },
    {
      "anonymous": false,
      "inputs": [
        {
          "indexed": true,
          "internalType": "address",
          "name": "owner",
          "type": "address"
        },
        {
          "indexed": true,
          "internalType": "address",
          "name": "approved",
          "type": "address"
        },
        {
          "indexed": true,
          "internalType": "uint256",
          "name": "tokenId",
          "type": "uint256"
        }
      ],
      "name": "Approval",
      "type": "event"
    },
    {
      "anonymous": false,
      "inputs": [
        {
          "indexed": true,
          "internalType": "address",
          "name": "owner",
          "type": "address"
        },
        {
          "indexed": true,
          "internalType": "address",
          "name": "operator",
          "type": "address"
        },
        {
          "indexed": false,
          "internalType": "bool",
          "name": "approved",
          "type": "bool"
        }
      ],
      "name": "ApprovalForAll",
      "type": "event"
    },
    {
      "anonymous": false,
      "inputs": [
        {
          "indexed": false,
          "internalType": "string",
          "name": "newBaseURI",
          "type": "string"
        }
      ],
      "name": "BaseURIChanged",
      "type": "event"
    },
    {
      "anonymous": false,
      "inputs": [
        {
          "indexed": false,
          "internalType": "address",
          "name": "minter",
          "type": "address"
        },
        {
          "indexed": false,
          "internalType": "uint256",
          "name": "amount",
          "type": "uint256"
        }
      ],
      "name": "Minted",
      "type": "event"
    },
    {
      "anonymous": false,
      "inputs": [
        {
          "indexed": true,
          "internalType": "address",
          "name": "previousOwner",
          "type": "address"
        },
        {
          "indexed": true,
          "internalType": "address",
          "name": "newOwner",
          "type": "address"
        }
      ],
      "name": "OwnershipTransferred",
      "type": "event"
    },
    {
      "anonymous": false,
      "inputs": [
        {
          "indexed": false,
          "internalType": "enum BOTTY.Status",
          "name": "status",
          "type": "uint8"
        }
      ],
      "name": "StatusChanged",
      "type": "event"
    },
    {
      "anonymous": false,
      "inputs": [
        {
          "indexed": true,
          "internalType": "address",
          "name": "from",
          "type": "address"
        },
        {
          "indexed": true,
          "internalType": "address",
          "name": "to",
          "type": "address"
        },
        {
          "indexed": true,
          "internalType": "uint256",
          "name": "tokenId",
          "type": "uint256"
        }
      ],
      "name": "Transfer",
      "type": "event"
    },
    {
      "inputs": [],
      "name": "MAX_MINT_PER_ADDR",
      "outputs": [
        {
          "internalType": "uint256",
          "name": "",
          "type": "uint256"
        }
      ],
      "stateMutability": "view",
      "type": "function"
    },
    {
      "inputs": [],
      "name": "MAX_SUPPLY",
      "outputs": [
        {
          "internalType": "uint256",
          "name": "",
          "type": "uint256"
        }
      ],
      "stateMutability": "view",
      "type": "function"
    },
    {
      "inputs": [],
      "name": "PRICE",
      "outputs": [
        {
          "internalType": "uint256",
          "name": "",
          "type": "uint256"
        }
      ],
      "stateMutability": "view",
      "type": "function"
    },
    {
      "inputs": [
        {
          "internalType": "address",
          "name": "to",
          "type": "address"
        },
        {
          "internalType": "uint256",
          "name": "tokenId",
          "type": "uint256"
        }
      ],
      "name": "approve",
      "outputs": [],
      "stateMutability": "nonpayable",
      "type": "function"
    },
    {
      "inputs": [
        {
          "internalType": "address",
          "name": "owner",
          "type": "address"
        }
      ],
      "name": "balanceOf",
      "outputs": [
        {
          "internalType": "uint256",
          "name": "",
          "type": "uint256"
        }
      ],
      "stateMutability": "view",
      "type": "function"
    },
    {
      "inputs": [
        {
          "internalType": "uint256",
          "name": "tokenId",
          "type": "uint256"
        }
      ],
      "name": "getApproved",
      "outputs": [
        {
          "internalType": "address",
          "name": "",
          "type": "address"
        }
      ],
      "stateMutability": "view",
      "type": "function"
    },
    {
      "inputs": [
        {
          "internalType": "address",
          "name": "owner",
          "type": "address"
        },
        {
          "internalType": "address",
          "name": "operator",
          "type": "address"
        }
      ],
      "name": "isApprovedForAll",
      "outputs": [
        {
          "internalType": "bool",
          "name": "",
          "type": "bool"
        }
      ],
      "stateMutability": "view",
      "type": "function"
    },
    {
      "inputs": [
        {
          "internalType": "uint256",
          "name": "quantity",
          "type": "uint256"
        }
      ],
      "name": "mint",
      "outputs": [],
      "stateMutability": "payable",
      "type": "function"
    },
    {
      "inputs": [],
      "name": "name",
      "outputs": [
        {
          "internalType": "string",
          "name": "",
          "type": "string"
        }
      ],
      "stateMutability": "view",
      "type": "function"
    },
    {
      "inputs": [
        {
          "internalType": "address",
          "name": "owner",
          "type": "address"
        }
      ],
      "name": "numberMinted",
      "outputs": [
        {
          "internalType": "uint256",
          "name": "",
          "type": "uint256"
        }
      ],
      "stateMutability": "view",
      "type": "function"
    },
    {
      "inputs": [],
      "name": "owner",
      "outputs": [
        {
          "internalType": "address",
          "name": "",
          "type": "address"
        }
      ],
      "stateMutability": "view",
      "type": "function"
    },
    {
      "inputs": [
        {
          "internalType": "uint256",
          "name": "tokenId",
          "type": "uint256"
        }
      ],
      "name": "ownerOf",
      "outputs": [
        {
          "internalType": "address",
          "name": "",
          "type": "address"
        }
      ],
      "stateMutability": "view",
      "type": "function"
    },
    {
      "inputs": [],
      "name": "renounceOwnership",
      "outputs": [],
      "stateMutability": "nonpayable",
      "type": "function"
    },
    {
      "inputs": [
        {
          "internalType": "address",
          "name": "from",
          "type": "address"
        },
        {
          "internalType": "address",
          "name": "to",
          "type": "address"
        },
        {
          "internalType": "uint256",
          "name": "tokenId",
          "type": "uint256"
        }
      ],
      "name": "safeTransferFrom",
      "outputs": [],
      "stateMutability": "nonpayable",
      "type": "function"
    },
    {
      "inputs": [
        {
          "internalType": "address",
          "name": "from",
          "type": "address"
        },
        {
          "internalType": "address",
          "name": "to",
          "type": "address"
        },
        {
          "internalType": "uint256",
          "name": "tokenId",
          "type": "uint256"
        },
        {
          "internalType": "bytes",
          "name": "_data",
          "type": "bytes"
        }
      ],
      "name": "safeTransferFrom",
      "outputs": [],
      "stateMutability": "nonpayable",
      "type": "function"
    },
    {
      "inputs": [
        {
          "internalType": "address",
          "name": "operator",
          "type": "address"
        },
        {
          "internalType": "bool",
          "name": "approved",
          "type": "bool"
        }
      ],
      "name": "setApprovalForAll",
      "outputs": [],
      "stateMutability": "nonpayable",
      "type": "function"
    },
    {
      "inputs": [
        {
          "internalType": "string",
          "name": "newBaseURI",
          "type": "string"
        }
      ],
      "name": "setBaseURI",
      "outputs": [],
      "stateMutability": "nonpayable",
      "type": "function"
    },
    {
      "inputs": [
        {
          "internalType": "enum BOTTY.Status",
          "name": "_status",
          "type": "uint8"
        }
      ],
      "name": "setStatus",
      "outputs": [],
      "stateMutability": "nonpayable",
      "type": "function"
    },
    {
      "inputs": [],
      "name": "status",
      "outputs": [
        {
          "internalType": "enum BOTTY.Status",
          "name": "",
          "type": "uint8"
        }
      ],
      "stateMutability": "view",
      "type": "function"
    },
    {
      "inputs": [
        {
          "internalType": "bytes4",
          "name": "interfaceId",
          "type": "bytes4"
        }
      ],
      "name": "supportsInterface",
      "outputs": [
        {
          "internalType": "bool",
          "name": "",
          "type": "bool"
        }
      ],
      "stateMutability": "view",
      "type": "function"
    },
    {
      "inputs": [],
      "name": "symbol",
      "outputs": [
        {
          "internalType": "string",
          "name": "",
          "type": "string"
        }
      ],
      "stateMutability": "view",
      "type": "function"
    },
    {
      "inputs": [
        {
          "internalType": "uint256",
          "name": "tokenId",
          "type": "uint256"
        }
      ],
      "name": "tokenURI",
      "outputs": [
        {
          "internalType": "string",
          "name": "",
          "type": "string"
        }
      ],
      "stateMutability": "view",
      "type": "function"
    },
    {
      "inputs": [],
      "name": "totalSupply",
      "outputs": [
        {
          "internalType": "uint256",
          "name": "",
          "type": "uint256"
        }
      ],
      "stateMutability": "view",
      "type": "function"
    },
    {
      "inputs": [
        {
          "internalType": "address",
          "name": "from",
          "type": "address"
        },
        {
          "internalType": "address",
          "name": "to",
          "type": "address"
        },
        {
          "internalType": "uint256",
          "name": "tokenId",
          "type": "uint256"
        }
      ],
      "name": "transferFrom",
      "outputs": [],
      "stateMutability": "nonpayable",
      "type": "function"
    },
    {
      "inputs": [
        {
          "internalType": "address",
          "name": "newOwner",
          "type": "address"
        }
      ],
      "name": "transferOwnership",
      "outputs": [],
      "stateMutability": "nonpayable",
      "type": "function"
    },
    {
      "inputs": [
        {
          "internalType": "address payable",
          "name": "recipient",
          "type": "address"
        }
      ],
      "name": "withdraw",
      "outputs": [],
      "stateMutability": "nonpayable",
      "type": "function"
    }
  ],
  "bytecode": "0x60806040523480156200001157600080fd5b5060405162003ddf38038062003ddf833981810160405281019062000037919062000322565b6040518060400160405280600581526020017f424f5454590000000000000000000000000000000000000000000000000000008152506040518060400160405280600581526020017f424f5454590000000000000000000000000000000000000000000000000000008152508160029080519060200190620000bb92919062000200565b508060039080519060200190620000d492919062000200565b50620000e56200012d60201b60201c565b60008190555050506200010d620001016200013260201b60201c565b6200013a60201b60201c565b80600990805190602001906200012592919062000200565b5050620004d7565b600090565b600033905090565b6000600860009054906101000a900473ffffffffffffffffffffffffffffffffffffffff16905081600860006101000a81548173ffffffffffffffffffffffffffffffffffffffff021916908373ffffffffffffffffffffffffffffffffffffffff1602179055508173ffffffffffffffffffffffffffffffffffffffff168173ffffffffffffffffffffffffffffffffffffffff167f8be0079c531659141344cd1fd0a4f28419497f9722a3daafe3b4186f6b6457e060405160405180910390a35050565b8280546200020e90620003fc565b90600052602060002090601f0160209004810192826200023257600085556200027e565b82601f106200024d57805160ff19168380011785556200027e565b828001600101855582156200027e579182015b828111156200027d57825182559160200191906001019062000260565b5b5090506200028d919062000291565b5090565b5b80821115620002ac57600081600090555060010162000292565b5090565b6000620002c7620002c18462000390565b62000367565b905082815260208101848484011115620002e057600080fd5b620002ed848285620003c6565b509392505050565b600082601f8301126200030757600080fd5b815162000319848260208601620002b0565b91505092915050565b6000602082840312156200033557600080fd5b600082015167ffffffffffffffff8111156200035057600080fd5b6200035e84828501620002f5565b91505092915050565b60006200037362000386565b905062000381828262000432565b919050565b6000604051905090565b600067ffffffffffffffff821115620003ae57620003ad62000497565b5b620003b982620004c6565b9050602081019050919050565b60005b83811015620003e6578082015181840152602081019050620003c9565b83811115620003f6576000848401525b50505050565b600060028204905060018216806200041557607f821691505b602082108114156200042c576200042b62000468565b5b50919050565b6200043d82620004c6565b810181811067ffffffffffffffff821117156200045f576200045e62000497565b5b80604052505050565b7f4e487b7100000000000000000000000000000000000000000000000000000000600052602260045260246000fd5b7f4e487b7100000000000000000000000000000000000000000000000000000000600052604160045260246000fd5b6000601f19601f8301169050919050565b6138f880620004e76000396000f3fe6080604052600436106101815760003560e01c80636352211e116100d1578063a0712d681161008a578063c87b56dd11610064578063c87b56dd1461054d578063dc33e6811461058a578063e985e9c5146105c7578063f2fde38b1461060457610181565b8063a0712d68146104df578063a22cb465146104fb578063b88d4fde1461052457610181565b80636352211e146103cd57806370a082311461040a578063715018a6146104475780638d859f3e1461045e5780638da5cb5b1461048957806395d89b41146104b457610181565b8063200d2ed21161013e57806332cb6b0c1161011857806332cb6b0c1461032757806342842e0e1461035257806351cff8d91461037b57806355f804b3146103a457610181565b8063200d2ed2146102aa57806323b872dd146102d55780632e49d78b146102fe57610181565b806301ffc9a71461018657806306fdde03146101c3578063081812fc146101ee578063095ea7b31461022b578063161548621461025457806318160ddd1461027f575b600080fd5b34801561019257600080fd5b506101ad60048036038101906101a89190612c39565b61062d565b6040516101ba9190613032565b60405180910390f35b3480156101cf57600080fd5b506101d861070f565b6040516101e5919061308c565b60405180910390f35b3480156101fa57600080fd5b5061021560048036038101906102109190612cf9565b6107a1565b6040516102229190612fa2565b60405180910390f35b34801561023757600080fd5b50610252600480360381019061024d9190612bfd565b61081d565b005b34801561026057600080fd5b50610269610928565b60405161027691906131ae565b60405180910390f35b34801561028b57600080fd5b5061029461092d565b6040516102a191906131ae565b60405180910390f35b3480156102b657600080fd5b506102bf610944565b6040516102cc919061304d565b60405180910390f35b3480156102e157600080fd5b506102fc60048036038101906102f79190612af7565b610957565b005b34801561030a57600080fd5b5061032560048036038101906103209190612c8b565b610967565b005b34801561033357600080fd5b5061033c610a7c565b60405161034991906131ae565b60405180910390f35b34801561035e57600080fd5b5061037960048036038101906103749190612af7565b610a82565b005b34801561038757600080fd5b506103a2600480360381019061039d9190612a92565b610aa2565b005b3480156103b057600080fd5b506103cb60048036038101906103c69190612cb4565b610bd4565b005b3480156103d957600080fd5b506103f460048036038101906103ef9190612cf9565b610c9f565b6040516104019190612fa2565b60405180910390f35b34801561041657600080fd5b50610431600480360381019061042c9190612a69565b610cb5565b60405161043e91906131ae565b60405180910390f35b34801561045357600080fd5b5061045c610d85565b005b34801561046a57600080fd5b50610473610e0d565b60405161048091906131ae565b60405180910390f35b34801561049557600080fd5b5061049e610e18565b6040516104ab9190612fa2565b60405180910390f35b3480156104c057600080fd5b506104c9610e42565b6040516104d6919061308c565b60405180910390f35b6104f960048036038101906104f49190612cf9565b610ed4565b005b34801561050757600080fd5b50610522600480360381019061051d9190612bc1565b611113565b005b34801561053057600080fd5b5061054b60048036038101906105469190612b46565b61128b565b005b34801561055957600080fd5b50610574600480360381019061056f9190612cf9565b611307565b604051610581919061308c565b60405180910390f35b34801561059657600080fd5b506105b160048036038101906105ac9190612a69565b6113a6565b6040516105be91906131ae565b60405180910390f35b3480156105d357600080fd5b506105ee60048036038101906105e99190612abb565b6113b8565b6040516105fb9190613032565b60405180910390f35b34801561061057600080fd5b5061062b60048036038101906106269190612a69565b61144c565b005b60007f80ac58cd000000000000000000000000000000000000000000000000000000007bffffffffffffffffffffffffffffffffffffffffffffffffffffffff1916827bffffffffffffffffffffffffffffffffffffffffffffffffffffffff191614806106f857507f5b5e139f000000000000000000000000000000000000000000000000000000007bffffffffffffffffffffffffffffffffffffffffffffffffffffffff1916827bffffffffffffffffffffffffffffffffffffffffffffffffffffffff1916145b80610708575061070782611544565b5b9050919050565b60606002805461071e9061346f565b80601f016020809104026020016040519081016040528092919081815260200182805461074a9061346f565b80156107975780601f1061076c57610100808354040283529160200191610797565b820191906000526020600020905b81548152906001019060200180831161077a57829003601f168201915b5050505050905090565b60006107ac826115ae565b6107e2576040517fcf4700e400000000000000000000000000000000000000000000000000000000815260040160405180910390fd5b6006600083815260200190815260200160002060009054906101000a900473ffffffffffffffffffffffffffffffffffffffff169050919050565b600061082882610c9f565b90508073ffffffffffffffffffffffffffffffffffffffff168373ffffffffffffffffffffffffffffffffffffffff161415610890576040517f943f7b8c00000000000000000000000000000000000000000000000000000000815260040160405180910390fd5b8073ffffffffffffffffffffffffffffffffffffffff166108af6115fc565b73ffffffffffffffffffffffffffffffffffffffff16141580156108e157506108df816108da6115fc565b6113b8565b155b15610918576040517fcfb3b94200000000000000000000000000000000000000000000000000000000815260040160405180910390fd5b610923838383611604565b505050565b600f81565b60006109376116b6565b6001546000540303905090565b600860149054906101000a900460ff1681565b6109628383836116bb565b505050565b61096f6115fc565b73ffffffffffffffffffffffffffffffffffffffff1661098d610e18565b73ffffffffffffffffffffffffffffffffffffffff16146109e3576040517f08c379a00000000000000000000000000000000000000000000000000000000081526004016109da906130ee565b60405180910390fd5b80600860146101000a81548160ff02191690836002811115610a2e577f4e487b7100000000000000000000000000000000000000000000000000000000600052602160045260246000fd5b02179055507fafa725e7f44cadb687a7043853fa1a7e7b8f0da74ce87ec546e9420f04da8c1e600860149054906101000a900460ff16604051610a71919061304d565b60405180910390a150565b6115b381565b610a9d8383836040518060200160405280600081525061128b565b505050565b610aaa6115fc565b73ffffffffffffffffffffffffffffffffffffffff16610ac8610e18565b73ffffffffffffffffffffffffffffffffffffffff1614610b1e576040517f08c379a0000000000000000000000000000000000000000000000000000000008152600401610b15906130ee565b60405180910390fd5b600047905060008273ffffffffffffffffffffffffffffffffffffffff1682604051610b4990612f8d565b60006040518083038185875af1925050503d8060008114610b86576040519150601f19603f3d011682016040523d82523d6000602084013e610b8b565b606091505b5050905080610bcf576040517f08c379a0000000000000000000000000000000000000000000000000000000008152600401610bc69061312e565b60405180910390fd5b505050565b610bdc6115fc565b73ffffffffffffffffffffffffffffffffffffffff16610bfa610e18565b73ffffffffffffffffffffffffffffffffffffffff1614610c50576040517f08c379a0000000000000000000000000000000000000000000000000000000008152600401610c47906130ee565b60405180910390fd5b818160099190610c6192919061283e565b507f5411e8ebf1636d9e83d5fc4900bf80cbac82e8790da2a4c94db4895e889eedf68282604051610c93929190613068565b60405180910390a15050565b6000610caa82611bac565b600001519050919050565b60008073ffffffffffffffffffffffffffffffffffffffff168273ffffffffffffffffffffffffffffffffffffffff161415610d1d576040517f8f4eb60400000000000000000000000000000000000000000000000000000000815260040160405180910390fd5b600560008373ffffffffffffffffffffffffffffffffffffffff1673ffffffffffffffffffffffffffffffffffffffff16815260200190815260200160002060000160009054906101000a900467ffffffffffffffff1667ffffffffffffffff169050919050565b610d8d6115fc565b73ffffffffffffffffffffffffffffffffffffffff16610dab610e18565b73ffffffffffffffffffffffffffffffffffffffff1614610e01576040517f08c379a0000000000000000000000000000000000000000000000000000000008152600401610df8906130ee565b60405180910390fd5b610e0b6000611e3b565b565b660aa87bee53800081565b6000600860009054906101000a900473ffffffffffffffffffffffffffffffffffffffff16905090565b606060038054610e519061346f565b80601f0160208091040260200160405190810160405280929190818152602001828054610e7d9061346f565b8015610eca5780601f10610e9f57610100808354040283529160200191610eca565b820191906000526020600020905b815481529060010190602001808311610ead57829003601f168201915b5050505050905090565b60016002811115610f0e577f4e487b7100000000000000000000000000000000000000000000000000000000600052602160045260246000fd5b600860149054906101000a900460ff166002811115610f56577f4e487b7100000000000000000000000000000000000000000000000000000000600052602160045260246000fd5b14610f96576040517f08c379a0000000000000000000000000000000000000000000000000000000008152600401610f8d9061316e565b60405180910390fd5b3373ffffffffffffffffffffffffffffffffffffffff163273ffffffffffffffffffffffffffffffffffffffff1614611004576040517f08c379a0000000000000000000000000000000000000000000000000000000008152600401610ffb9061318e565b60405180910390fd5b600f81611010336113a6565b61101a919061326d565b111561105b576040517f08c379a00000000000000000000000000000000000000000000000000000000081526004016110529061310e565b60405180910390fd5b6115b38161106761092d565b611071919061326d565b11156110b2576040517f08c379a00000000000000000000000000000000000000000000000000000000081526004016110a99061314e565b60405180910390fd5b6110bc3382611f01565b6110d781660aa87bee5380006110d291906132f4565b611f1f565b7f30385c845b448a36257a6a1716e6ad2e1bc2cbe333cde1e69fe849ad6511adfe3382604051611108929190613009565b60405180910390a150565b61111b6115fc565b73ffffffffffffffffffffffffffffffffffffffff168273ffffffffffffffffffffffffffffffffffffffff161415611180576040517fb06307db00000000000000000000000000000000000000000000000000000000815260040160405180910390fd5b806007600061118d6115fc565b73ffffffffffffffffffffffffffffffffffffffff1673ffffffffffffffffffffffffffffffffffffffff16815260200190815260200160002060008473ffffffffffffffffffffffffffffffffffffffff1673ffffffffffffffffffffffffffffffffffffffff16815260200190815260200160002060006101000a81548160ff0219169083151502179055508173ffffffffffffffffffffffffffffffffffffffff1661123a6115fc565b73ffffffffffffffffffffffffffffffffffffffff167f17307eab39ab6107e8899845ad3d59bd9653f200f220920489ca2b5937696c318360405161127f9190613032565b60405180910390a35050565b6112968484846116bb565b6112b58373ffffffffffffffffffffffffffffffffffffffff16611fc0565b80156112ca57506112c884848484611fe3565b155b15611301576040517fd1a57ed600000000000000000000000000000000000000000000000000000000815260040160405180910390fd5b50505050565b6060611312826115ae565b611348576040517fa14c4b5000000000000000000000000000000000000000000000000000000000815260040160405180910390fd5b6000611352612143565b9050600081511415611373576040518060200160405280600081525061139e565b8061137d846121d5565b60405160200161138e929190612f69565b6040516020818303038152906040525b915050919050565b60006113b182612382565b9050919050565b6000600760008473ffffffffffffffffffffffffffffffffffffffff1673ffffffffffffffffffffffffffffffffffffffff16815260200190815260200160002060008373ffffffffffffffffffffffffffffffffffffffff1673ffffffffffffffffffffffffffffffffffffffff16815260200190815260200160002060009054906101000a900460ff16905092915050565b6114546115fc565b73ffffffffffffffffffffffffffffffffffffffff16611472610e18565b73ffffffffffffffffffffffffffffffffffffffff16146114c8576040517f08c379a00000000000000000000000000000000000000000000000000000000081526004016114bf906130ee565b60405180910390fd5b600073ffffffffffffffffffffffffffffffffffffffff168173ffffffffffffffffffffffffffffffffffffffff161415611538576040517f08c379a000000000000000000000000000000000000000000000000000000000815260040161152f906130ce565b60405180910390fd5b61154181611e3b565b50565b60007f01ffc9a7000000000000000000000000000000000000000000000000000000007bffffffffffffffffffffffffffffffffffffffffffffffffffffffff1916827bffffffffffffffffffffffffffffffffffffffffffffffffffffffff1916149050919050565b6000816115b96116b6565b111580156115c8575060005482105b80156115f5575060046000838152602001908152602001600020600001601c9054906101000a900460ff16155b9050919050565b600033905090565b826006600084815260200190815260200160002060006101000a81548173ffffffffffffffffffffffffffffffffffffffff021916908373ffffffffffffffffffffffffffffffffffffffff160217905550818373ffffffffffffffffffffffffffffffffffffffff168273ffffffffffffffffffffffffffffffffffffffff167f8c5be1e5ebec7d5bd14f71427d1e84f3dd0314c0f7b2291e5b200ac8c7c3b92560405160405180910390a4505050565b600090565b60006116c682611bac565b90506000816000015173ffffffffffffffffffffffffffffffffffffffff166116ed6115fc565b73ffffffffffffffffffffffffffffffffffffffff161480611720575061171f826000015161171a6115fc565b6113b8565b5b80611765575061172e6115fc565b73ffffffffffffffffffffffffffffffffffffffff1661174d846107a1565b73ffffffffffffffffffffffffffffffffffffffff16145b90508061179e576040517f59c896be00000000000000000000000000000000000000000000000000000000815260040160405180910390fd5b8473ffffffffffffffffffffffffffffffffffffffff16826000015173ffffffffffffffffffffffffffffffffffffffff1614611807576040517fa114810000000000000000000000000000000000000000000000000000000000815260040160405180910390fd5b600073ffffffffffffffffffffffffffffffffffffffff168473ffffffffffffffffffffffffffffffffffffffff16141561186e576040517fea553b3400000000000000000000000000000000000000000000000000000000815260040160405180910390fd5b61187b8585856001612452565b61188b6000848460000151611604565b6001600560008773ffffffffffffffffffffffffffffffffffffffff1673ffffffffffffffffffffffffffffffffffffffff16815260200190815260200160002060000160008282829054906101000a900467ffffffffffffffff160392506101000a81548167ffffffffffffffff021916908367ffffffffffffffff1602179055506001600560008673ffffffffffffffffffffffffffffffffffffffff1673ffffffffffffffffffffffffffffffffffffffff16815260200190815260200160002060000160008282829054906101000a900467ffffffffffffffff160192506101000a81548167ffffffffffffffff021916908367ffffffffffffffff160217905550836004600085815260200190815260200160002060000160006101000a81548173ffffffffffffffffffffffffffffffffffffffff021916908373ffffffffffffffffffffffffffffffffffffffff160217905550426004600085815260200190815260200160002060000160146101000a81548167ffffffffffffffff021916908367ffffffffffffffff1602179055506000600184019050600073ffffffffffffffffffffffffffffffffffffffff166004600083815260200190815260200160002060000160009054906101000a900473ffffffffffffffffffffffffffffffffffffffff1673ffffffffffffffffffffffffffffffffffffffff161415611b3c57600054811015611b3b5782600001516004600083815260200190815260200160002060000160006101000a81548173ffffffffffffffffffffffffffffffffffffffff021916908373ffffffffffffffffffffffffffffffffffffffff16021790555082602001516004600083815260200190815260200160002060000160146101000a81548167ffffffffffffffff021916908367ffffffffffffffff1602179055505b5b50828473ffffffffffffffffffffffffffffffffffffffff168673ffffffffffffffffffffffffffffffffffffffff167fddf252ad1be2c89b69c2b068fc378daa952ba7f163c4a11628f55a4df523b3ef60405160405180910390a4611ba58585856001612458565b5050505050565b611bb46128c4565b600082905080611bc26116b6565b11158015611bd1575060005481105b15611e04576000600460008381526020019081526020016000206040518060600160405290816000820160009054906101000a900473ffffffffffffffffffffffffffffffffffffffff1673ffffffffffffffffffffffffffffffffffffffff1673ffffffffffffffffffffffffffffffffffffffff1681526020016000820160149054906101000a900467ffffffffffffffff1667ffffffffffffffff1667ffffffffffffffff16815260200160008201601c9054906101000a900460ff16151515158152505090508060400151611e0257600073ffffffffffffffffffffffffffffffffffffffff16816000015173ffffffffffffffffffffffffffffffffffffffff1614611ce6578092505050611e36565b5b600115611e0157818060019003925050600460008381526020019081526020016000206040518060600160405290816000820160009054906101000a900473ffffffffffffffffffffffffffffffffffffffff1673ffffffffffffffffffffffffffffffffffffffff1673ffffffffffffffffffffffffffffffffffffffff1681526020016000820160149054906101000a900467ffffffffffffffff1667ffffffffffffffff1667ffffffffffffffff16815260200160008201601c9054906101000a900460ff1615151515815250509050600073ffffffffffffffffffffffffffffffffffffffff16816000015173ffffffffffffffffffffffffffffffffffffffff1614611dfc578092505050611e36565b611ce7565b5b505b6040517fdf2d9b4200000000000000000000000000000000000000000000000000000000815260040160405180910390fd5b919050565b6000600860009054906101000a900473ffffffffffffffffffffffffffffffffffffffff16905081600860006101000a81548173ffffffffffffffffffffffffffffffffffffffff021916908373ffffffffffffffffffffffffffffffffffffffff1602179055508173ffffffffffffffffffffffffffffffffffffffff168173ffffffffffffffffffffffffffffffffffffffff167f8be0079c531659141344cd1fd0a4f28419497f9722a3daafe3b4186f6b6457e060405160405180910390a35050565b611f1b82826040518060200160405280600081525061245e565b5050565b80341015611f62576040517f08c379a0000000000000000000000000000000000000000000000000000000008152600401611f59906130ae565b60405180910390fd5b80341115611fbd573373ffffffffffffffffffffffffffffffffffffffff166108fc8234611f90919061334e565b9081150290604051600060405180830381858888f19350505050158015611fbb573d6000803e3d6000fd5b505b50565b6000808273ffffffffffffffffffffffffffffffffffffffff163b119050919050565b60008373ffffffffffffffffffffffffffffffffffffffff1663150b7a026120096115fc565b8786866040518563ffffffff1660e01b815260040161202b9493929190612fbd565b602060405180830381600087803b15801561204557600080fd5b505af192505050801561207657506040513d601f19601f820116820180604052508101906120739190612c62565b60015b6120f0573d80600081146120a6576040519150601f19603f3d011682016040523d82523d6000602084013e6120ab565b606091505b506000815114156120e8576040517fd1a57ed600000000000000000000000000000000000000000000000000000000815260040160405180910390fd5b805181602001fd5b63150b7a0260e01b7bffffffffffffffffffffffffffffffffffffffffffffffffffffffff1916817bffffffffffffffffffffffffffffffffffffffffffffffffffffffff191614915050949350505050565b6060600980546121529061346f565b80601f016020809104026020016040519081016040528092919081815260200182805461217e9061346f565b80156121cb5780601f106121a0576101008083540402835291602001916121cb565b820191906000526020600020905b8154815290600101906020018083116121ae57829003601f168201915b5050505050905090565b6060600082141561221d576040518060400160405280600181526020017f3000000000000000000000000000000000000000000000000000000000000000815250905061237d565b600082905060005b6000821461224f578080612238906134d2565b915050600a8261224891906132c3565b9150612225565b60008167ffffffffffffffff811115612291577f4e487b7100000000000000000000000000000000000000000000000000000000600052604160045260246000fd5b6040519080825280601f01601f1916602001820160405280156122c35781602001600182028036833780820191505090505b5090505b60008514612376576001826122dc919061334e565b9150600a856122eb919061351b565b60306122f7919061326d565b60f81b818381518110612333577f4e487b7100000000000000000000000000000000000000000000000000000000600052603260045260246000fd5b60200101907effffffffffffffffffffffffffffffffffffffffffffffffffffffffffffff1916908160001a905350600a8561236f91906132c3565b94506122c7565b8093505050505b919050565b60008073ffffffffffffffffffffffffffffffffffffffff168273ffffffffffffffffffffffffffffffffffffffff1614156123ea576040517f35ebb31900000000000000000000000000000000000000000000000000000000815260040160405180910390fd5b600560008373ffffffffffffffffffffffffffffffffffffffff1673ffffffffffffffffffffffffffffffffffffffff16815260200190815260200160002060000160089054906101000a900467ffffffffffffffff1667ffffffffffffffff169050919050565b50505050565b50505050565b61246b8383836001612470565b505050565b600080549050600073ffffffffffffffffffffffffffffffffffffffff168573ffffffffffffffffffffffffffffffffffffffff1614156124dd576040517f2e07630000000000000000000000000000000000000000000000000000000000815260040160405180910390fd5b6000841415612518576040517fb562e8dd00000000000000000000000000000000000000000000000000000000815260040160405180910390fd5b6125256000868387612452565b83600560008773ffffffffffffffffffffffffffffffffffffffff1673ffffffffffffffffffffffffffffffffffffffff16815260200190815260200160002060000160008282829054906101000a900467ffffffffffffffff160192506101000a81548167ffffffffffffffff021916908367ffffffffffffffff16021790555083600560008773ffffffffffffffffffffffffffffffffffffffff1673ffffffffffffffffffffffffffffffffffffffff16815260200190815260200160002060000160088282829054906101000a900467ffffffffffffffff160192506101000a81548167ffffffffffffffff021916908367ffffffffffffffff160217905550846004600083815260200190815260200160002060000160006101000a81548173ffffffffffffffffffffffffffffffffffffffff021916908373ffffffffffffffffffffffffffffffffffffffff160217905550426004600083815260200190815260200160002060000160146101000a81548167ffffffffffffffff021916908367ffffffffffffffff1602179055506000819050600085820190508380156126ef57506126ee8773ffffffffffffffffffffffffffffffffffffffff16611fc0565b5b156127b5575b818773ffffffffffffffffffffffffffffffffffffffff16600073ffffffffffffffffffffffffffffffffffffffff167fddf252ad1be2c89b69c2b068fc378daa952ba7f163c4a11628f55a4df523b3ef60405160405180910390a46127646000888480600101955088611fe3565b61279a576040517fd1a57ed600000000000000000000000000000000000000000000000000000000815260040160405180910390fd5b808214156126f55782600054146127b057600080fd5b612821565b5b818060010192508773ffffffffffffffffffffffffffffffffffffffff16600073ffffffffffffffffffffffffffffffffffffffff167fddf252ad1be2c89b69c2b068fc378daa952ba7f163c4a11628f55a4df523b3ef60405160405180910390a4808214156127b6575b8160008190555050506128376000868387612458565b5050505050565b82805461284a9061346f565b90600052602060002090601f01602090048101928261286c57600085556128b3565b82601f1061288557803560ff19168380011785556128b3565b828001600101855582156128b3579182015b828111156128b2578235825591602001919060010190612897565b5b5090506128c09190612907565b5090565b6040518060600160405280600073ffffffffffffffffffffffffffffffffffffffff168152602001600067ffffffffffffffff1681526020016000151581525090565b5b80821115612920576000816000905550600101612908565b5090565b6000612937612932846131ee565b6131c9565b90508281526020810184848401111561294f57600080fd5b61295a84828561342d565b509392505050565b6000813590506129718161383f565b92915050565b60008135905061298681613856565b92915050565b60008135905061299b8161386d565b92915050565b6000813590506129b081613884565b92915050565b6000815190506129c581613884565b92915050565b600082601f8301126129dc57600080fd5b81356129ec848260208601612924565b91505092915050565b600081359050612a048161389b565b92915050565b60008083601f840112612a1c57600080fd5b8235905067ffffffffffffffff811115612a3557600080fd5b602083019150836001820283011115612a4d57600080fd5b9250929050565b600081359050612a63816138ab565b92915050565b600060208284031215612a7b57600080fd5b6000612a8984828501612962565b91505092915050565b600060208284031215612aa457600080fd5b6000612ab284828501612977565b91505092915050565b60008060408385031215612ace57600080fd5b6000612adc85828601612962565b9250506020612aed85828601612962565b9150509250929050565b600080600060608486031215612b0c57600080fd5b6000612b1a86828701612962565b9350506020612b2b86828701612962565b9250506040612b3c86828701612a54565b9150509250925092565b60008060008060808587031215612b5c57600080fd5b6000612b6a87828801612962565b9450506020612b7b87828801612962565b9350506040612b8c87828801612a54565b925050606085013567ffffffffffffffff811115612ba957600080fd5b612bb5878288016129cb565b91505092959194509250565b60008060408385031215612bd457600080fd5b6000612be285828601612962565b9250506020612bf38582860161298c565b9150509250929050565b60008060408385031215612c1057600080fd5b6000612c1e85828601612962565b9250506020612c2f85828601612a54565b9150509250929050565b600060208284031215612c4b57600080fd5b6000612c59848285016129a1565b91505092915050565b600060208284031215612c7457600080fd5b6000612c82848285016129b6565b91505092915050565b600060208284031215612c9d57600080fd5b6000612cab848285016129f5565b91505092915050565b60008060208385031215612cc757600080fd5b600083013567ffffffffffffffff811115612ce157600080fd5b612ced85828601612a0a565b92509250509250929050565b600060208284031215612d0b57600080fd5b6000612d1984828501612a54565b91505092915050565b612d2b81613382565b82525050565b612d3a816133a6565b82525050565b6000612d4b8261321f565b612d558185613235565b9350612d6581856020860161343c565b612d6e81613637565b840191505092915050565b612d828161341b565b82525050565b6000612d948385613251565b9350612da183858461342d565b612daa83613637565b840190509392505050565b6000612dc08261322a565b612dca8185613251565b9350612dda81856020860161343c565b612de381613637565b840191505092915050565b6000612df98261322a565b612e038185613262565b9350612e1381856020860161343c565b80840191505092915050565b6000612e2c601683613251565b9150612e3782613648565b602082019050919050565b6000612e4f602683613251565b9150612e5a82613671565b604082019050919050565b6000612e72602083613251565b9150612e7d826136c0565b602082019050919050565b6000612e95602183613251565b9150612ea0826136e9565b604082019050919050565b6000612eb8602883613251565b9150612ec382613738565b604082019050919050565b6000612edb601b83613251565b9150612ee682613787565b602082019050919050565b6000612efe600083613246565b9150612f09826137b0565b600082019050919050565b6000612f21601783613251565b9150612f2c826137b3565b602082019050919050565b6000612f44602183613251565b9150612f4f826137dc565b604082019050919050565b612f6381613411565b82525050565b6000612f758285612dee565b9150612f818284612dee565b91508190509392505050565b6000612f9882612ef1565b9150819050919050565b6000602082019050612fb76000830184612d22565b92915050565b6000608082019050612fd26000830187612d22565b612fdf6020830186612d22565b612fec6040830185612f5a565b8181036060830152612ffe8184612d40565b905095945050505050565b600060408201905061301e6000830185612d22565b61302b6020830184612f5a565b9392505050565b60006020820190506130476000830184612d31565b92915050565b60006020820190506130626000830184612d79565b92915050565b60006020820190508181036000830152613083818486612d88565b90509392505050565b600060208201905081810360008301526130a68184612db5565b905092915050565b600060208201905081810360008301526130c781612e1f565b9050919050565b600060208201905081810360008301526130e781612e42565b9050919050565b6000602082019050818103600083015261310781612e65565b9050919050565b6000602082019050818103600083015261312781612e88565b9050919050565b6000602082019050818103600083015261314781612eab565b9050919050565b6000602082019050818103600083015261316781612ece565b9050919050565b6000602082019050818103600083015261318781612f14565b9050919050565b600060208201905081810360008301526131a781612f37565b9050919050565b60006020820190506131c36000830184612f5a565b92915050565b60006131d36131e4565b90506131df82826134a1565b919050565b6000604051905090565b600067ffffffffffffffff82111561320957613208613608565b5b61321282613637565b9050602081019050919050565b600081519050919050565b600081519050919050565b600082825260208201905092915050565b600081905092915050565b600082825260208201905092915050565b600081905092915050565b600061327882613411565b915061328383613411565b9250827fffffffffffffffffffffffffffffffffffffffffffffffffffffffffffffffff038211156132b8576132b761354c565b5b828201905092915050565b60006132ce82613411565b91506132d983613411565b9250826132e9576132e861357b565b5b828204905092915050565b60006132ff82613411565b915061330a83613411565b9250817fffffffffffffffffffffffffffffffffffffffffffffffffffffffffffffffff04831182151516156133435761334261354c565b5b828202905092915050565b600061335982613411565b915061336483613411565b9250828210156133775761337661354c565b5b828203905092915050565b600061338d826133f1565b9050919050565b600061339f826133f1565b9050919050565b60008115159050919050565b60007fffffffff0000000000000000000000000000000000000000000000000000000082169050919050565b60008190506133ec8261382b565b919050565b600073ffffffffffffffffffffffffffffffffffffffff82169050919050565b6000819050919050565b6000613426826133de565b9050919050565b82818337600083830152505050565b60005b8381101561345a57808201518184015260208101905061343f565b83811115613469576000848401525b50505050565b6000600282049050600182168061348757607f821691505b6020821081141561349b5761349a6135d9565b5b50919050565b6134aa82613637565b810181811067ffffffffffffffff821117156134c9576134c8613608565b5b80604052505050565b60006134dd82613411565b91507fffffffffffffffffffffffffffffffffffffffffffffffffffffffffffffffff8214156135105761350f61354c565b5b600182019050919050565b600061352682613411565b915061353183613411565b9250826135415761354061357b565b5b828206905092915050565b7f4e487b7100000000000000000000000000000000000000000000000000000000600052601160045260246000fd5b7f4e487b7100000000000000000000000000000000000000000000000000000000600052601260045260246000fd5b7f4e487b7100000000000000000000000000000000000000000000000000000000600052602160045260246000fd5b7f4e487b7100000000000000000000000000000000000000000000000000000000600052602260045260246000fd5b7f4e487b7100000000000000000000000000000000000000000000000000000000600052604160045260246000fd5b6000601f19601f8301169050919050565b7f424f5454593a204e6f7420656e6f756768204554482e00000000000000000000600082015250565b7f4f776e61626c653a206e6577206f776e657220697320746865207a65726f206160008201527f6464726573730000000000000000000000000000000000000000000000000000602082015250565b7f4f776e61626c653a2063616c6c6572206973206e6f7420746865206f776e6572600082015250565b7f424f5454593a2054686973206973206d6f7265207468616e20616c6c6f77656460008201527f2e00000000000000000000000000000000000000000000000000000000000000602082015250565b7f424f5454593a204e4654732068617665206265656e20636f6d706c6574656c7960008201527f206d696e7465642e000000000000000000000000000000000000000000000000602082015250565b7f424f5454593a204e6f7420656e6f756768207175616e746974792e0000000000600082015250565b50565b7f424f5454593a204e6f742073746172746564207965742e000000000000000000600082015250565b7f424f5454593a20436f6e74726163742063616c6c206e6f7420616c6c6f77656460008201527f2e00000000000000000000000000000000000000000000000000000000000000602082015250565b6003811061383c5761383b6135aa565b5b50565b61384881613382565b811461385357600080fd5b50565b61385f81613394565b811461386a57600080fd5b50565b613876816133a6565b811461388157600080fd5b50565b61388d816133b2565b811461389857600080fd5b50565b600381106138a857600080fd5b50565b6138b481613411565b81146138bf57600080fd5b5056fea26469706673582212207b1674247f0af01628d77b5509d527b5c58e3cbaa929311484349b7d8209c8d864736f6c63430008040033",
  "linkReferences": {},
  "deployedLinkReferences": {}
}