{
  "_format": "hh-sol-artifact-1",
  "contractName": "TOCABO",
  "sourceName": "contracts/TOCABO.sol",
  "abi": [
    {
      "inputs": [
        {
          "internalType": "string",
          "name": "initBaseURI",
          "type": "string"
        }
      ],
      "stateMutability": "nonpayable",
      "type": "constructor"
    },
    {
      "inputs": [],
      "name": "ApprovalCallerNotOwnerNorApproved",
      "type": "error"
    },
    {
      "inputs": [],
      "name": "ApprovalQueryForNonexistentToken",
      "type": "error"
    },
    {
      "inputs": [],
      "name": "ApprovalToCurrentOwner",
      "type": "error"
    },
    {
      "inputs": [],
      "name": "ApproveToCaller",
      "type": "error"
    },
    {
      "inputs": [],
      "name": "BalanceQueryForZeroAddress",
      "type": "error"
    },
    {
      "inputs": [],
      "name": "MintToZeroAddress",
      "type": "error"
    },
    {
      "inputs": [],
      "name": "MintZeroQuantity",
      "type": "error"
    },
    {
      "inputs": [],
      "name": "MintedQueryForZeroAddress",
      "type": "error"
    },
    {
      "inputs": [],
      "name": "OwnerQueryForNonexistentToken",
      "type": "error"
    },
    {
      "inputs": [],
      "name": "TransferCallerNotOwnerNorApproved",
      "type": "error"
    },
    {
      "inputs": [],
      "name": "TransferFromIncorrectOwner",
      "type": "error"
    },
    {
      "inputs": [],
      "name": "TransferToNonERC721ReceiverImplementer",
      "type": "error"
    },
    {
      "inputs": [],
      "name": "TransferToZeroAddress",
      "type": "error"
    },
    {
      "inputs": [],
      "name": "URIQueryForNonexistentToken",
      "type": "error"
    },
    {
      "anonymous": false,
      "inputs": [
        {
          "indexed": true,
          "internalType": "address",
          "name": "owner",
          "type": "address"
        },
        {
          "indexed": true,
          "internalType": "address",
          "name": "approved",
          "type": "address"
        },
        {
          "indexed": true,
          "internalType": "uint256",
          "name": "tokenId",
          "type": "uint256"
        }
      ],
      "name": "Approval",
      "type": "event"
    },
    {
      "anonymous": false,
      "inputs": [
        {
          "indexed": true,
          "internalType": "address",
          "name": "owner",
          "type": "address"
        },
        {
          "indexed": true,
          "internalType": "address",
          "name": "operator",
          "type": "address"
        },
        {
          "indexed": false,
          "internalType": "bool",
          "name": "approved",
          "type": "bool"
        }
      ],
      "name": "ApprovalForAll",
      "type": "event"
    },
    {
      "anonymous": false,
      "inputs": [
        {
          "indexed": false,
          "internalType": "string",
          "name": "newBaseURI",
          "type": "string"
        }
      ],
      "name": "BaseURIChanged",
      "type": "event"
    },
    {
      "anonymous": false,
      "inputs": [
        {
          "indexed": false,
          "internalType": "address",
          "name": "minter",
          "type": "address"
        },
        {
          "indexed": false,
          "internalType": "uint256",
          "name": "amount",
          "type": "uint256"
        }
      ],
      "name": "Minted",
      "type": "event"
    },
    {
      "anonymous": false,
      "inputs": [
        {
          "indexed": true,
          "internalType": "address",
          "name": "previousOwner",
          "type": "address"
        },
        {
          "indexed": true,
          "internalType": "address",
          "name": "newOwner",
          "type": "address"
        }
      ],
      "name": "OwnershipTransferred",
      "type": "event"
    },
    {
      "anonymous": false,
      "inputs": [
        {
          "indexed": false,
          "internalType": "enum TOCABO.Status",
          "name": "status",
          "type": "uint8"
        }
      ],
      "name": "StatusChanged",
      "type": "event"
    },
    {
      "anonymous": false,
      "inputs": [
        {
          "indexed": true,
          "internalType": "address",
          "name": "from",
          "type": "address"
        },
        {
          "indexed": true,
          "internalType": "address",
          "name": "to",
          "type": "address"
        },
        {
          "indexed": true,
          "internalType": "uint256",
          "name": "tokenId",
          "type": "uint256"
        }
      ],
      "name": "Transfer",
      "type": "event"
    },
    {
      "inputs": [],
      "name": "FREE_MINT_SUPPLY",
      "outputs": [
        {
          "internalType": "uint256",
          "name": "",
          "type": "uint256"
        }
      ],
      "stateMutability": "view",
      "type": "function"
    },
    {
      "inputs": [],
      "name": "MAX_MINT_PER_ADDR",
      "outputs": [
        {
          "internalType": "uint256",
          "name": "",
          "type": "uint256"
        }
      ],
      "stateMutability": "view",
      "type": "function"
    },
    {
      "inputs": [],
      "name": "MAX_SUPPLY",
      "outputs": [
        {
          "internalType": "uint256",
          "name": "",
          "type": "uint256"
        }
      ],
      "stateMutability": "view",
      "type": "function"
    },
    {
      "inputs": [],
      "name": "PRICE",
      "outputs": [
        {
          "internalType": "uint256",
          "name": "",
          "type": "uint256"
        }
      ],
      "stateMutability": "view",
      "type": "function"
    },
    {
      "inputs": [
        {
          "internalType": "address",
          "name": "to",
          "type": "address"
        },
        {
          "internalType": "uint256",
          "name": "tokenId",
          "type": "uint256"
        }
      ],
      "name": "approve",
      "outputs": [],
      "stateMutability": "nonpayable",
      "type": "function"
    },
    {
      "inputs": [
        {
          "internalType": "address",
          "name": "owner",
          "type": "address"
        }
      ],
      "name": "balanceOf",
      "outputs": [
        {
          "internalType": "uint256",
          "name": "",
          "type": "uint256"
        }
      ],
      "stateMutability": "view",
      "type": "function"
    },
    {
      "inputs": [
        {
          "internalType": "uint256",
          "name": "tokenId",
          "type": "uint256"
        }
      ],
      "name": "getApproved",
      "outputs": [
        {
          "internalType": "address",
          "name": "",
          "type": "address"
        }
      ],
      "stateMutability": "view",
      "type": "function"
    },
    {
      "inputs": [
        {
          "internalType": "address",
          "name": "owner",
          "type": "address"
        },
        {
          "internalType": "address",
          "name": "operator",
          "type": "address"
        }
      ],
      "name": "isApprovedForAll",
      "outputs": [
        {
          "internalType": "bool",
          "name": "",
          "type": "bool"
        }
      ],
      "stateMutability": "view",
      "type": "function"
    },
    {
      "inputs": [
        {
          "internalType": "uint256",
          "name": "quantity",
          "type": "uint256"
        }
      ],
      "name": "mint",
      "outputs": [],
      "stateMutability": "payable",
      "type": "function"
    },
    {
      "inputs": [],
      "name": "name",
      "outputs": [
        {
          "internalType": "string",
          "name": "",
          "type": "string"
        }
      ],
      "stateMutability": "view",
      "type": "function"
    },
    {
      "inputs": [
        {
          "internalType": "address",
          "name": "owner",
          "type": "address"
        }
      ],
      "name": "numberMinted",
      "outputs": [
        {
          "internalType": "uint256",
          "name": "",
          "type": "uint256"
        }
      ],
      "stateMutability": "view",
      "type": "function"
    },
    {
      "inputs": [],
      "name": "owner",
      "outputs": [
        {
          "internalType": "address",
          "name": "",
          "type": "address"
        }
      ],
      "stateMutability": "view",
      "type": "function"
    },
    {
      "inputs": [
        {
          "internalType": "uint256",
          "name": "tokenId",
          "type": "uint256"
        }
      ],
      "name": "ownerOf",
      "outputs": [
        {
          "internalType": "address",
          "name": "",
          "type": "address"
        }
      ],
      "stateMutability": "view",
      "type": "function"
    },
    {
      "inputs": [],
      "name": "renounceOwnership",
      "outputs": [],
      "stateMutability": "nonpayable",
      "type": "function"
    },
    {
      "inputs": [
        {
          "internalType": "address",
          "name": "from",
          "type": "address"
        },
        {
          "internalType": "address",
          "name": "to",
          "type": "address"
        },
        {
          "internalType": "uint256",
          "name": "tokenId",
          "type": "uint256"
        }
      ],
      "name": "safeTransferFrom",
      "outputs": [],
      "stateMutability": "nonpayable",
      "type": "function"
    },
    {
      "inputs": [
        {
          "internalType": "address",
          "name": "from",
          "type": "address"
        },
        {
          "internalType": "address",
          "name": "to",
          "type": "address"
        },
        {
          "internalType": "uint256",
          "name": "tokenId",
          "type": "uint256"
        },
        {
          "internalType": "bytes",
          "name": "_data",
          "type": "bytes"
        }
      ],
      "name": "safeTransferFrom",
      "outputs": [],
      "stateMutability": "nonpayable",
      "type": "function"
    },
    {
      "inputs": [
        {
          "internalType": "address",
          "name": "operator",
          "type": "address"
        },
        {
          "internalType": "bool",
          "name": "approved",
          "type": "bool"
        }
      ],
      "name": "setApprovalForAll",
      "outputs": [],
      "stateMutability": "nonpayable",
      "type": "function"
    },
    {
      "inputs": [
        {
          "internalType": "string",
          "name": "newBaseURI",
          "type": "string"
        }
      ],
      "name": "setBaseURI",
      "outputs": [],
      "stateMutability": "nonpayable",
      "type": "function"
    },
    {
      "inputs": [
        {
          "internalType": "enum TOCABO.Status",
          "name": "_status",
          "type": "uint8"
        }
      ],
      "name": "setStatus",
      "outputs": [],
      "stateMutability": "nonpayable",
      "type": "function"
    },
    {
      "inputs": [],
      "name": "status",
      "outputs": [
        {
          "internalType": "enum TOCABO.Status",
          "name": "",
          "type": "uint8"
        }
      ],
      "stateMutability": "view",
      "type": "function"
    },
    {
      "inputs": [
        {
          "internalType": "bytes4",
          "name": "interfaceId",
          "type": "bytes4"
        }
      ],
      "name": "supportsInterface",
      "outputs": [
        {
          "internalType": "bool",
          "name": "",
          "type": "bool"
        }
      ],
      "stateMutability": "view",
      "type": "function"
    },
    {
      "inputs": [],
      "name": "symbol",
      "outputs": [
        {
          "internalType": "string",
          "name": "",
          "type": "string"
        }
      ],
      "stateMutability": "view",
      "type": "function"
    },
    {
      "inputs": [
        {
          "internalType": "uint256",
          "name": "tokenId",
          "type": "uint256"
        }
      ],
      "name": "tokenURI",
      "outputs": [
        {
          "internalType": "string",
          "name": "",
          "type": "string"
        }
      ],
      "stateMutability": "view",
      "type": "function"
    },
    {
      "inputs": [],
      "name": "totalSupply",
      "outputs": [
        {
          "internalType": "uint256",
          "name": "",
          "type": "uint256"
        }
      ],
      "stateMutability": "view",
      "type": "function"
    },
    {
      "inputs": [
        {
          "internalType": "address",
          "name": "from",
          "type": "address"
        },
        {
          "internalType": "address",
          "name": "to",
          "type": "address"
        },
        {
          "internalType": "uint256",
          "name": "tokenId",
          "type": "uint256"
        }
      ],
      "name": "transferFrom",
      "outputs": [],
      "stateMutability": "nonpayable",
      "type": "function"
    },
    {
      "inputs": [
        {
          "internalType": "address",
          "name": "newOwner",
          "type": "address"
        }
      ],
      "name": "transferOwnership",
      "outputs": [],
      "stateMutability": "nonpayable",
      "type": "function"
    },
    {
      "inputs": [
        {
          "internalType": "address payable",
          "name": "recipient",
          "type": "address"
        }
      ],
      "name": "withdraw",
      "outputs": [],
      "stateMutability": "nonpayable",
      "type": "function"
    }
  ],
  "bytecode": "0x60806040523480156200001157600080fd5b5060405162003e5638038062003e56833981810160405281019062000037919062000322565b6040518060400160405280600681526020017f546f6361626f00000000000000000000000000000000000000000000000000008152506040518060400160405280600681526020017f544f4341424f00000000000000000000000000000000000000000000000000008152508160029080519060200190620000bb92919062000200565b508060039080519060200190620000d492919062000200565b50620000e56200012d60201b60201c565b60008190555050506200010d620001016200013260201b60201c565b6200013a60201b60201c565b80600990805190602001906200012592919062000200565b5050620004d7565b600090565b600033905090565b6000600860009054906101000a900473ffffffffffffffffffffffffffffffffffffffff16905081600860006101000a81548173ffffffffffffffffffffffffffffffffffffffff021916908373ffffffffffffffffffffffffffffffffffffffff1602179055508173ffffffffffffffffffffffffffffffffffffffff168173ffffffffffffffffffffffffffffffffffffffff167f8be0079c531659141344cd1fd0a4f28419497f9722a3daafe3b4186f6b6457e060405160405180910390a35050565b8280546200020e90620003fc565b90600052602060002090601f0160209004810192826200023257600085556200027e565b82601f106200024d57805160ff19168380011785556200027e565b828001600101855582156200027e579182015b828111156200027d57825182559160200191906001019062000260565b5b5090506200028d919062000291565b5090565b5b80821115620002ac57600081600090555060010162000292565b5090565b6000620002c7620002c18462000390565b62000367565b905082815260208101848484011115620002e057600080fd5b620002ed848285620003c6565b509392505050565b600082601f8301126200030757600080fd5b815162000319848260208601620002b0565b91505092915050565b6000602082840312156200033557600080fd5b600082015167ffffffffffffffff8111156200035057600080fd5b6200035e84828501620002f5565b91505092915050565b60006200037362000386565b905062000381828262000432565b919050565b6000604051905090565b600067ffffffffffffffff821115620003ae57620003ad62000497565b5b620003b982620004c6565b9050602081019050919050565b60005b83811015620003e6578082015181840152602081019050620003c9565b83811115620003f6576000848401525b50505050565b600060028204905060018216806200041557607f821691505b602082108114156200042c576200042b62000468565b5b50919050565b6200043d82620004c6565b810181811067ffffffffffffffff821117156200045f576200045e62000497565b5b80604052505050565b7f4e487b7100000000000000000000000000000000000000000000000000000000600052602260045260246000fd5b7f4e487b7100000000000000000000000000000000000000000000000000000000600052604160045260246000fd5b6000601f19601f8301169050919050565b61396f80620004e76000396000f3fe60806040526004361061019c5760003560e01c80636352211e116100ec578063a0712d681161008a578063c87b56dd11610064578063c87b56dd14610593578063dc33e681146105d0578063e985e9c51461060d578063f2fde38b1461064a5761019c565b8063a0712d6814610525578063a22cb46514610541578063b88d4fde1461056a5761019c565b8063715018a6116100c6578063715018a61461048d5780638d859f3e146104a45780638da5cb5b146104cf57806395d89b41146104fa5761019c565b80636352211e146103e857806363eb8bb61461042557806370a08231146104505761019c565b8063200d2ed21161015957806332cb6b0c1161013357806332cb6b0c1461034257806342842e0e1461036d57806351cff8d91461039657806355f804b3146103bf5761019c565b8063200d2ed2146102c557806323b872dd146102f05780632e49d78b146103195761019c565b806301ffc9a7146101a157806306fdde03146101de578063081812fc14610209578063095ea7b314610246578063161548621461026f57806318160ddd1461029a575b600080fd5b3480156101ad57600080fd5b506101c860048036038101906101c39190612cb0565b610673565b6040516101d591906130a9565b60405180910390f35b3480156101ea57600080fd5b506101f3610755565b6040516102009190613103565b60405180910390f35b34801561021557600080fd5b50610230600480360381019061022b9190612d70565b6107e7565b60405161023d9190613019565b60405180910390f35b34801561025257600080fd5b5061026d60048036038101906102689190612c74565b610863565b005b34801561027b57600080fd5b5061028461096e565b6040516102919190613225565b60405180910390f35b3480156102a657600080fd5b506102af610973565b6040516102bc9190613225565b60405180910390f35b3480156102d157600080fd5b506102da61098a565b6040516102e791906130c4565b60405180910390f35b3480156102fc57600080fd5b5061031760048036038101906103129190612b6e565b61099d565b005b34801561032557600080fd5b50610340600480360381019061033b9190612d02565b6109ad565b005b34801561034e57600080fd5b50610357610ac2565b6040516103649190613225565b60405180910390f35b34801561037957600080fd5b50610394600480360381019061038f9190612b6e565b610ac8565b005b3480156103a257600080fd5b506103bd60048036038101906103b89190612b09565b610ae8565b005b3480156103cb57600080fd5b506103e660048036038101906103e19190612d2b565b610c1a565b005b3480156103f457600080fd5b5061040f600480360381019061040a9190612d70565b610ce5565b60405161041c9190613019565b60405180910390f35b34801561043157600080fd5b5061043a610cfb565b6040516104479190613225565b60405180910390f35b34801561045c57600080fd5b5061047760048036038101906104729190612ae0565b610d01565b6040516104849190613225565b60405180910390f35b34801561049957600080fd5b506104a2610dd1565b005b3480156104b057600080fd5b506104b9610e59565b6040516104c69190613225565b60405180910390f35b3480156104db57600080fd5b506104e4610e64565b6040516104f19190613019565b60405180910390f35b34801561050657600080fd5b5061050f610e8e565b60405161051c9190613103565b60405180910390f35b61053f600480360381019061053a9190612d70565b610f20565b005b34801561054d57600080fd5b5061056860048036038101906105639190612c38565b61118a565b005b34801561057657600080fd5b50610591600480360381019061058c9190612bbd565b611302565b005b34801561059f57600080fd5b506105ba60048036038101906105b59190612d70565b61137e565b6040516105c79190613103565b60405180910390f35b3480156105dc57600080fd5b506105f760048036038101906105f29190612ae0565b61141d565b6040516106049190613225565b60405180910390f35b34801561061957600080fd5b50610634600480360381019061062f9190612b32565b61142f565b60405161064191906130a9565b60405180910390f35b34801561065657600080fd5b50610671600480360381019061066c9190612ae0565b6114c3565b005b60007f80ac58cd000000000000000000000000000000000000000000000000000000007bffffffffffffffffffffffffffffffffffffffffffffffffffffffff1916827bffffffffffffffffffffffffffffffffffffffffffffffffffffffff1916148061073e57507f5b5e139f000000000000000000000000000000000000000000000000000000007bffffffffffffffffffffffffffffffffffffffffffffffffffffffff1916827bffffffffffffffffffffffffffffffffffffffffffffffffffffffff1916145b8061074e575061074d826115bb565b5b9050919050565b606060028054610764906134e6565b80601f0160208091040260200160405190810160405280929190818152602001828054610790906134e6565b80156107dd5780601f106107b2576101008083540402835291602001916107dd565b820191906000526020600020905b8154815290600101906020018083116107c057829003601f168201915b5050505050905090565b60006107f282611625565b610828576040517fcf4700e400000000000000000000000000000000000000000000000000000000815260040160405180910390fd5b6006600083815260200190815260200160002060009054906101000a900473ffffffffffffffffffffffffffffffffffffffff169050919050565b600061086e82610ce5565b90508073ffffffffffffffffffffffffffffffffffffffff168373ffffffffffffffffffffffffffffffffffffffff1614156108d6576040517f943f7b8c00000000000000000000000000000000000000000000000000000000815260040160405180910390fd5b8073ffffffffffffffffffffffffffffffffffffffff166108f5611673565b73ffffffffffffffffffffffffffffffffffffffff1614158015610927575061092581610920611673565b61142f565b155b1561095e576040517fcfb3b94200000000000000000000000000000000000000000000000000000000815260040160405180910390fd5b61096983838361167b565b505050565b600a81565b600061097d61172d565b6001546000540303905090565b600860149054906101000a900460ff1681565b6109a8838383611732565b505050565b6109b5611673565b73ffffffffffffffffffffffffffffffffffffffff166109d3610e64565b73ffffffffffffffffffffffffffffffffffffffff1614610a29576040517f08c379a0000000000000000000000000000000000000000000000000000000008152600401610a20906131e5565b60405180910390fd5b80600860146101000a81548160ff02191690836002811115610a74577f4e487b7100000000000000000000000000000000000000000000000000000000600052602160045260246000fd5b02179055507fafa725e7f44cadb687a7043853fa1a7e7b8f0da74ce87ec546e9420f04da8c1e600860149054906101000a900460ff16604051610ab791906130c4565b60405180910390a150565b61162281565b610ae383838360405180602001604052806000815250611302565b505050565b610af0611673565b73ffffffffffffffffffffffffffffffffffffffff16610b0e610e64565b73ffffffffffffffffffffffffffffffffffffffff1614610b64576040517f08c379a0000000000000000000000000000000000000000000000000000000008152600401610b5b906131e5565b60405180910390fd5b600047905060008273ffffffffffffffffffffffffffffffffffffffff1682604051610b8f90613004565b60006040518083038185875af1925050503d8060008114610bcc576040519150601f19603f3d011682016040523d82523d6000602084013e610bd1565b606091505b5050905080610c15576040517f08c379a0000000000000000000000000000000000000000000000000000000008152600401610c0c90613165565b60405180910390fd5b505050565b610c22611673565b73ffffffffffffffffffffffffffffffffffffffff16610c40610e64565b73ffffffffffffffffffffffffffffffffffffffff1614610c96576040517f08c379a0000000000000000000000000000000000000000000000000000000008152600401610c8d906131e5565b60405180910390fd5b818160099190610ca79291906128b5565b507f5411e8ebf1636d9e83d5fc4900bf80cbac82e8790da2a4c94db4895e889eedf68282604051610cd99291906130df565b60405180910390a15050565b6000610cf082611c23565b600001519050919050565b61025881565b60008073ffffffffffffffffffffffffffffffffffffffff168273ffffffffffffffffffffffffffffffffffffffff161415610d69576040517f8f4eb60400000000000000000000000000000000000000000000000000000000815260040160405180910390fd5b600560008373ffffffffffffffffffffffffffffffffffffffff1673ffffffffffffffffffffffffffffffffffffffff16815260200190815260200160002060000160009054906101000a900467ffffffffffffffff1667ffffffffffffffff169050919050565b610dd9611673565b73ffffffffffffffffffffffffffffffffffffffff16610df7610e64565b73ffffffffffffffffffffffffffffffffffffffff1614610e4d576040517f08c379a0000000000000000000000000000000000000000000000000000000008152600401610e44906131e5565b60405180910390fd5b610e576000611eb2565b565b6611c37937e0800081565b6000600860009054906101000a900473ffffffffffffffffffffffffffffffffffffffff16905090565b606060038054610e9d906134e6565b80601f0160208091040260200160405190810160405280929190818152602001828054610ec9906134e6565b8015610f165780601f10610eeb57610100808354040283529160200191610f16565b820191906000526020600020905b815481529060010190602001808311610ef957829003601f168201915b5050505050905090565b60016002811115610f5a577f4e487b7100000000000000000000000000000000000000000000000000000000600052602160045260246000fd5b600860149054906101000a900460ff166002811115610fa2577f4e487b7100000000000000000000000000000000000000000000000000000000600052602160045260246000fd5b14610fe2576040517f08c379a0000000000000000000000000000000000000000000000000000000008152600401610fd9906131c5565b60405180910390fd5b3373ffffffffffffffffffffffffffffffffffffffff163273ffffffffffffffffffffffffffffffffffffffff1614611050576040517f08c379a000000000000000000000000000000000000000000000000000000000815260040161104790613205565b60405180910390fd5b600a8161105c3361141d565b61106691906132e4565b11156110a7576040517f08c379a000000000000000000000000000000000000000000000000000000000815260040161109e906131a5565b60405180910390fd5b611622816110b3610973565b6110bd91906132e4565b11156110fe576040517f08c379a00000000000000000000000000000000000000000000000000000000081526004016110f590613185565b60405180910390fd5b6111083382611f78565b61025881611114610973565b61111e91906132e4565b116111325761112d6000611f96565b61114e565b61114d816611c37937e08000611148919061336b565b611f96565b5b7f30385c845b448a36257a6a1716e6ad2e1bc2cbe333cde1e69fe849ad6511adfe338260405161117f929190613080565b60405180910390a150565b611192611673565b73ffffffffffffffffffffffffffffffffffffffff168273ffffffffffffffffffffffffffffffffffffffff1614156111f7576040517fb06307db00000000000000000000000000000000000000000000000000000000815260040160405180910390fd5b8060076000611204611673565b73ffffffffffffffffffffffffffffffffffffffff1673ffffffffffffffffffffffffffffffffffffffff16815260200190815260200160002060008473ffffffffffffffffffffffffffffffffffffffff1673ffffffffffffffffffffffffffffffffffffffff16815260200190815260200160002060006101000a81548160ff0219169083151502179055508173ffffffffffffffffffffffffffffffffffffffff166112b1611673565b73ffffffffffffffffffffffffffffffffffffffff167f17307eab39ab6107e8899845ad3d59bd9653f200f220920489ca2b5937696c31836040516112f691906130a9565b60405180910390a35050565b61130d848484611732565b61132c8373ffffffffffffffffffffffffffffffffffffffff16612037565b8015611341575061133f8484848461205a565b155b15611378576040517fd1a57ed600000000000000000000000000000000000000000000000000000000815260040160405180910390fd5b50505050565b606061138982611625565b6113bf576040517fa14c4b5000000000000000000000000000000000000000000000000000000000815260040160405180910390fd5b60006113c96121ba565b90506000815114156113ea5760405180602001604052806000815250611415565b806113f48461224c565b604051602001611405929190612fe0565b6040516020818303038152906040525b915050919050565b6000611428826123f9565b9050919050565b6000600760008473ffffffffffffffffffffffffffffffffffffffff1673ffffffffffffffffffffffffffffffffffffffff16815260200190815260200160002060008373ffffffffffffffffffffffffffffffffffffffff1673ffffffffffffffffffffffffffffffffffffffff16815260200190815260200160002060009054906101000a900460ff16905092915050565b6114cb611673565b73ffffffffffffffffffffffffffffffffffffffff166114e9610e64565b73ffffffffffffffffffffffffffffffffffffffff161461153f576040517f08c379a0000000000000000000000000000000000000000000000000000000008152600401611536906131e5565b60405180910390fd5b600073ffffffffffffffffffffffffffffffffffffffff168173ffffffffffffffffffffffffffffffffffffffff1614156115af576040517f08c379a00000000000000000000000000000000000000000000000000000000081526004016115a690613125565b60405180910390fd5b6115b881611eb2565b50565b60007f01ffc9a7000000000000000000000000000000000000000000000000000000007bffffffffffffffffffffffffffffffffffffffffffffffffffffffff1916827bffffffffffffffffffffffffffffffffffffffffffffffffffffffff1916149050919050565b60008161163061172d565b1115801561163f575060005482105b801561166c575060046000838152602001908152602001600020600001601c9054906101000a900460ff16155b9050919050565b600033905090565b826006600084815260200190815260200160002060006101000a81548173ffffffffffffffffffffffffffffffffffffffff021916908373ffffffffffffffffffffffffffffffffffffffff160217905550818373ffffffffffffffffffffffffffffffffffffffff168273ffffffffffffffffffffffffffffffffffffffff167f8c5be1e5ebec7d5bd14f71427d1e84f3dd0314c0f7b2291e5b200ac8c7c3b92560405160405180910390a4505050565b600090565b600061173d82611c23565b90506000816000015173ffffffffffffffffffffffffffffffffffffffff16611764611673565b73ffffffffffffffffffffffffffffffffffffffff16148061179757506117968260000151611791611673565b61142f565b5b806117dc57506117a5611673565b73ffffffffffffffffffffffffffffffffffffffff166117c4846107e7565b73ffffffffffffffffffffffffffffffffffffffff16145b905080611815576040517f59c896be00000000000000000000000000000000000000000000000000000000815260040160405180910390fd5b8473ffffffffffffffffffffffffffffffffffffffff16826000015173ffffffffffffffffffffffffffffffffffffffff161461187e576040517fa114810000000000000000000000000000000000000000000000000000000000815260040160405180910390fd5b600073ffffffffffffffffffffffffffffffffffffffff168473ffffffffffffffffffffffffffffffffffffffff1614156118e5576040517fea553b3400000000000000000000000000000000000000000000000000000000815260040160405180910390fd5b6118f285858560016124c9565b611902600084846000015161167b565b6001600560008773ffffffffffffffffffffffffffffffffffffffff1673ffffffffffffffffffffffffffffffffffffffff16815260200190815260200160002060000160008282829054906101000a900467ffffffffffffffff160392506101000a81548167ffffffffffffffff021916908367ffffffffffffffff1602179055506001600560008673ffffffffffffffffffffffffffffffffffffffff1673ffffffffffffffffffffffffffffffffffffffff16815260200190815260200160002060000160008282829054906101000a900467ffffffffffffffff160192506101000a81548167ffffffffffffffff021916908367ffffffffffffffff160217905550836004600085815260200190815260200160002060000160006101000a81548173ffffffffffffffffffffffffffffffffffffffff021916908373ffffffffffffffffffffffffffffffffffffffff160217905550426004600085815260200190815260200160002060000160146101000a81548167ffffffffffffffff021916908367ffffffffffffffff1602179055506000600184019050600073ffffffffffffffffffffffffffffffffffffffff166004600083815260200190815260200160002060000160009054906101000a900473ffffffffffffffffffffffffffffffffffffffff1673ffffffffffffffffffffffffffffffffffffffff161415611bb357600054811015611bb25782600001516004600083815260200190815260200160002060000160006101000a81548173ffffffffffffffffffffffffffffffffffffffff021916908373ffffffffffffffffffffffffffffffffffffffff16021790555082602001516004600083815260200190815260200160002060000160146101000a81548167ffffffffffffffff021916908367ffffffffffffffff1602179055505b5b50828473ffffffffffffffffffffffffffffffffffffffff168673ffffffffffffffffffffffffffffffffffffffff167fddf252ad1be2c89b69c2b068fc378daa952ba7f163c4a11628f55a4df523b3ef60405160405180910390a4611c1c85858560016124cf565b5050505050565b611c2b61293b565b600082905080611c3961172d565b11158015611c48575060005481105b15611e7b576000600460008381526020019081526020016000206040518060600160405290816000820160009054906101000a900473ffffffffffffffffffffffffffffffffffffffff1673ffffffffffffffffffffffffffffffffffffffff1673ffffffffffffffffffffffffffffffffffffffff1681526020016000820160149054906101000a900467ffffffffffffffff1667ffffffffffffffff1667ffffffffffffffff16815260200160008201601c9054906101000a900460ff16151515158152505090508060400151611e7957600073ffffffffffffffffffffffffffffffffffffffff16816000015173ffffffffffffffffffffffffffffffffffffffff1614611d5d578092505050611ead565b5b600115611e7857818060019003925050600460008381526020019081526020016000206040518060600160405290816000820160009054906101000a900473ffffffffffffffffffffffffffffffffffffffff1673ffffffffffffffffffffffffffffffffffffffff1673ffffffffffffffffffffffffffffffffffffffff1681526020016000820160149054906101000a900467ffffffffffffffff1667ffffffffffffffff1667ffffffffffffffff16815260200160008201601c9054906101000a900460ff1615151515815250509050600073ffffffffffffffffffffffffffffffffffffffff16816000015173ffffffffffffffffffffffffffffffffffffffff1614611e73578092505050611ead565b611d5e565b5b505b6040517fdf2d9b4200000000000000000000000000000000000000000000000000000000815260040160405180910390fd5b919050565b6000600860009054906101000a900473ffffffffffffffffffffffffffffffffffffffff16905081600860006101000a81548173ffffffffffffffffffffffffffffffffffffffff021916908373ffffffffffffffffffffffffffffffffffffffff1602179055508173ffffffffffffffffffffffffffffffffffffffff168173ffffffffffffffffffffffffffffffffffffffff167f8be0079c531659141344cd1fd0a4f28419497f9722a3daafe3b4186f6b6457e060405160405180910390a35050565b611f928282604051806020016040528060008152506124d5565b5050565b80341015611fd9576040517f08c379a0000000000000000000000000000000000000000000000000000000008152600401611fd090613145565b60405180910390fd5b80341115612034573373ffffffffffffffffffffffffffffffffffffffff166108fc823461200791906133c5565b9081150290604051600060405180830381858888f19350505050158015612032573d6000803e3d6000fd5b505b50565b6000808273ffffffffffffffffffffffffffffffffffffffff163b119050919050565b60008373ffffffffffffffffffffffffffffffffffffffff1663150b7a02612080611673565b8786866040518563ffffffff1660e01b81526004016120a29493929190613034565b602060405180830381600087803b1580156120bc57600080fd5b505af19250505080156120ed57506040513d601f19601f820116820180604052508101906120ea9190612cd9565b60015b612167573d806000811461211d576040519150601f19603f3d011682016040523d82523d6000602084013e612122565b606091505b5060008151141561215f576040517fd1a57ed600000000000000000000000000000000000000000000000000000000815260040160405180910390fd5b805181602001fd5b63150b7a0260e01b7bffffffffffffffffffffffffffffffffffffffffffffffffffffffff1916817bffffffffffffffffffffffffffffffffffffffffffffffffffffffff191614915050949350505050565b6060600980546121c9906134e6565b80601f01602080910402602001604051908101604052809291908181526020018280546121f5906134e6565b80156122425780601f1061221757610100808354040283529160200191612242565b820191906000526020600020905b81548152906001019060200180831161222557829003601f168201915b5050505050905090565b60606000821415612294576040518060400160405280600181526020017f300000000000000000000000000000000000000000000000000000000000000081525090506123f4565b600082905060005b600082146122c65780806122af90613549565b915050600a826122bf919061333a565b915061229c565b60008167ffffffffffffffff811115612308577f4e487b7100000000000000000000000000000000000000000000000000000000600052604160045260246000fd5b6040519080825280601f01601f19166020018201604052801561233a5781602001600182028036833780820191505090505b5090505b600085146123ed5760018261235391906133c5565b9150600a856123629190613592565b603061236e91906132e4565b60f81b8183815181106123aa577f4e487b7100000000000000000000000000000000000000000000000000000000600052603260045260246000fd5b60200101907effffffffffffffffffffffffffffffffffffffffffffffffffffffffffffff1916908160001a905350600a856123e6919061333a565b945061233e565b8093505050505b919050565b60008073ffffffffffffffffffffffffffffffffffffffff168273ffffffffffffffffffffffffffffffffffffffff161415612461576040517f35ebb31900000000000000000000000000000000000000000000000000000000815260040160405180910390fd5b600560008373ffffffffffffffffffffffffffffffffffffffff1673ffffffffffffffffffffffffffffffffffffffff16815260200190815260200160002060000160089054906101000a900467ffffffffffffffff1667ffffffffffffffff169050919050565b50505050565b50505050565b6124e283838360016124e7565b505050565b600080549050600073ffffffffffffffffffffffffffffffffffffffff168573ffffffffffffffffffffffffffffffffffffffff161415612554576040517f2e07630000000000000000000000000000000000000000000000000000000000815260040160405180910390fd5b600084141561258f576040517fb562e8dd00000000000000000000000000000000000000000000000000000000815260040160405180910390fd5b61259c60008683876124c9565b83600560008773ffffffffffffffffffffffffffffffffffffffff1673ffffffffffffffffffffffffffffffffffffffff16815260200190815260200160002060000160008282829054906101000a900467ffffffffffffffff160192506101000a81548167ffffffffffffffff021916908367ffffffffffffffff16021790555083600560008773ffffffffffffffffffffffffffffffffffffffff1673ffffffffffffffffffffffffffffffffffffffff16815260200190815260200160002060000160088282829054906101000a900467ffffffffffffffff160192506101000a81548167ffffffffffffffff021916908367ffffffffffffffff160217905550846004600083815260200190815260200160002060000160006101000a81548173ffffffffffffffffffffffffffffffffffffffff021916908373ffffffffffffffffffffffffffffffffffffffff160217905550426004600083815260200190815260200160002060000160146101000a81548167ffffffffffffffff021916908367ffffffffffffffff16021790555060008190506000858201905083801561276657506127658773ffffffffffffffffffffffffffffffffffffffff16612037565b5b1561282c575b818773ffffffffffffffffffffffffffffffffffffffff16600073ffffffffffffffffffffffffffffffffffffffff167fddf252ad1be2c89b69c2b068fc378daa952ba7f163c4a11628f55a4df523b3ef60405160405180910390a46127db600088848060010195508861205a565b612811576040517fd1a57ed600000000000000000000000000000000000000000000000000000000815260040160405180910390fd5b8082141561276c57826000541461282757600080fd5b612898565b5b818060010192508773ffffffffffffffffffffffffffffffffffffffff16600073ffffffffffffffffffffffffffffffffffffffff167fddf252ad1be2c89b69c2b068fc378daa952ba7f163c4a11628f55a4df523b3ef60405160405180910390a48082141561282d575b8160008190555050506128ae60008683876124cf565b5050505050565b8280546128c1906134e6565b90600052602060002090601f0160209004810192826128e3576000855561292a565b82601f106128fc57803560ff191683800117855561292a565b8280016001018555821561292a579182015b8281111561292957823582559160200191906001019061290e565b5b509050612937919061297e565b5090565b6040518060600160405280600073ffffffffffffffffffffffffffffffffffffffff168152602001600067ffffffffffffffff1681526020016000151581525090565b5b8082111561299757600081600090555060010161297f565b5090565b60006129ae6129a984613265565b613240565b9050828152602081018484840111156129c657600080fd5b6129d18482856134a4565b509392505050565b6000813590506129e8816138b6565b92915050565b6000813590506129fd816138cd565b92915050565b600081359050612a12816138e4565b92915050565b600081359050612a27816138fb565b92915050565b600081519050612a3c816138fb565b92915050565b600082601f830112612a5357600080fd5b8135612a6384826020860161299b565b91505092915050565b600081359050612a7b81613912565b92915050565b60008083601f840112612a9357600080fd5b8235905067ffffffffffffffff811115612aac57600080fd5b602083019150836001820283011115612ac457600080fd5b9250929050565b600081359050612ada81613922565b92915050565b600060208284031215612af257600080fd5b6000612b00848285016129d9565b91505092915050565b600060208284031215612b1b57600080fd5b6000612b29848285016129ee565b91505092915050565b60008060408385031215612b4557600080fd5b6000612b53858286016129d9565b9250506020612b64858286016129d9565b9150509250929050565b600080600060608486031215612b8357600080fd5b6000612b91868287016129d9565b9350506020612ba2868287016129d9565b9250506040612bb386828701612acb565b9150509250925092565b60008060008060808587031215612bd357600080fd5b6000612be1878288016129d9565b9450506020612bf2878288016129d9565b9350506040612c0387828801612acb565b925050606085013567ffffffffffffffff811115612c2057600080fd5b612c2c87828801612a42565b91505092959194509250565b60008060408385031215612c4b57600080fd5b6000612c59858286016129d9565b9250506020612c6a85828601612a03565b9150509250929050565b60008060408385031215612c8757600080fd5b6000612c95858286016129d9565b9250506020612ca685828601612acb565b9150509250929050565b600060208284031215612cc257600080fd5b6000612cd084828501612a18565b91505092915050565b600060208284031215612ceb57600080fd5b6000612cf984828501612a2d565b91505092915050565b600060208284031215612d1457600080fd5b6000612d2284828501612a6c565b91505092915050565b60008060208385031215612d3e57600080fd5b600083013567ffffffffffffffff811115612d5857600080fd5b612d6485828601612a81565b92509250509250929050565b600060208284031215612d8257600080fd5b6000612d9084828501612acb565b91505092915050565b612da2816133f9565b82525050565b612db18161341d565b82525050565b6000612dc282613296565b612dcc81856132ac565b9350612ddc8185602086016134b3565b612de5816136ae565b840191505092915050565b612df981613492565b82525050565b6000612e0b83856132c8565b9350612e188385846134a4565b612e21836136ae565b840190509392505050565b6000612e37826132a1565b612e4181856132c8565b9350612e518185602086016134b3565b612e5a816136ae565b840191505092915050565b6000612e70826132a1565b612e7a81856132d9565b9350612e8a8185602086016134b3565b80840191505092915050565b6000612ea36026836132c8565b9150612eae826136bf565b604082019050919050565b6000612ec66017836132c8565b9150612ed18261370e565b602082019050919050565b6000612ee96029836132c8565b9150612ef482613737565b604082019050919050565b6000612f0c601c836132c8565b9150612f1782613786565b602082019050919050565b6000612f2f6022836132c8565b9150612f3a826137af565b604082019050919050565b6000612f526018836132c8565b9150612f5d826137fe565b602082019050919050565b6000612f756020836132c8565b9150612f8082613827565b602082019050919050565b6000612f986000836132bd565b9150612fa382613850565b600082019050919050565b6000612fbb6022836132c8565b9150612fc682613853565b604082019050919050565b612fda81613488565b82525050565b6000612fec8285612e65565b9150612ff88284612e65565b91508190509392505050565b600061300f82612f8b565b9150819050919050565b600060208201905061302e6000830184612d99565b92915050565b60006080820190506130496000830187612d99565b6130566020830186612d99565b6130636040830185612fd1565b81810360608301526130758184612db7565b905095945050505050565b60006040820190506130956000830185612d99565b6130a26020830184612fd1565b9392505050565b60006020820190506130be6000830184612da8565b92915050565b60006020820190506130d96000830184612df0565b92915050565b600060208201905081810360008301526130fa818486612dff565b90509392505050565b6000602082019050818103600083015261311d8184612e2c565b905092915050565b6000602082019050818103600083015261313e81612e96565b9050919050565b6000602082019050818103600083015261315e81612eb9565b9050919050565b6000602082019050818103600083015261317e81612edc565b9050919050565b6000602082019050818103600083015261319e81612eff565b9050919050565b600060208201905081810360008301526131be81612f22565b9050919050565b600060208201905081810360008301526131de81612f45565b9050919050565b600060208201905081810360008301526131fe81612f68565b9050919050565b6000602082019050818103600083015261321e81612fae565b9050919050565b600060208201905061323a6000830184612fd1565b92915050565b600061324a61325b565b90506132568282613518565b919050565b6000604051905090565b600067ffffffffffffffff8211156132805761327f61367f565b5b613289826136ae565b9050602081019050919050565b600081519050919050565b600081519050919050565b600082825260208201905092915050565b600081905092915050565b600082825260208201905092915050565b600081905092915050565b60006132ef82613488565b91506132fa83613488565b9250827fffffffffffffffffffffffffffffffffffffffffffffffffffffffffffffffff0382111561332f5761332e6135c3565b5b828201905092915050565b600061334582613488565b915061335083613488565b9250826133605761335f6135f2565b5b828204905092915050565b600061337682613488565b915061338183613488565b9250817fffffffffffffffffffffffffffffffffffffffffffffffffffffffffffffffff04831182151516156133ba576133b96135c3565b5b828202905092915050565b60006133d082613488565b91506133db83613488565b9250828210156133ee576133ed6135c3565b5b828203905092915050565b600061340482613468565b9050919050565b600061341682613468565b9050919050565b60008115159050919050565b60007fffffffff0000000000000000000000000000000000000000000000000000000082169050919050565b6000819050613463826138a2565b919050565b600073ffffffffffffffffffffffffffffffffffffffff82169050919050565b6000819050919050565b600061349d82613455565b9050919050565b82818337600083830152505050565b60005b838110156134d15780820151818401526020810190506134b6565b838111156134e0576000848401525b50505050565b600060028204905060018216806134fe57607f821691505b6020821081141561351257613511613650565b5b50919050565b613521826136ae565b810181811067ffffffffffffffff821117156135405761353f61367f565b5b80604052505050565b600061355482613488565b91507fffffffffffffffffffffffffffffffffffffffffffffffffffffffffffffffff821415613587576135866135c3565b5b600182019050919050565b600061359d82613488565b91506135a883613488565b9250826135b8576135b76135f2565b5b828206905092915050565b7f4e487b7100000000000000000000000000000000000000000000000000000000600052601160045260246000fd5b7f4e487b7100000000000000000000000000000000000000000000000000000000600052601260045260246000fd5b7f4e487b7100000000000000000000000000000000000000000000000000000000600052602160045260246000fd5b7f4e487b7100000000000000000000000000000000000000000000000000000000600052602260045260246000fd5b7f4e487b7100000000000000000000000000000000000000000000000000000000600052604160045260246000fd5b6000601f19601f8301169050919050565b7f4f776e61626c653a206e6577206f776e657220697320746865207a65726f206160008201527f6464726573730000000000000000000000000000000000000000000000000000602082015250565b7f544f4341424f3a204e6f7420656e6f756768204554482e000000000000000000600082015250565b7f544f4341424f3a204e4654732068617665206265656e20636f6d706c6574656c60008201527f79206d696e7465642e0000000000000000000000000000000000000000000000602082015250565b7f544f4341424f3a204e6f7420656e6f756768207175616e746974792e00000000600082015250565b7f544f4341424f3a2054686973206973206d6f7265207468616e20616c6c6f776560008201527f642e000000000000000000000000000000000000000000000000000000000000602082015250565b7f544f4341424f3a204e6f742073746172746564207965742e0000000000000000600082015250565b7f4f776e61626c653a2063616c6c6572206973206e6f7420746865206f776e6572600082015250565b50565b7f544f4341424f3a20436f6e74726163742063616c6c206e6f7420616c6c6f776560008201527f642e000000000000000000000000000000000000000000000000000000000000602082015250565b600381106138b3576138b2613621565b5b50565b6138bf816133f9565b81146138ca57600080fd5b50565b6138d68161340b565b81146138e157600080fd5b50565b6138ed8161341d565b81146138f857600080fd5b50565b61390481613429565b811461390f57600080fd5b50565b6003811061391f57600080fd5b50565b61392b81613488565b811461393657600080fd5b5056fea2646970667358221220ce7e68c3ae5955949698bf4ff839595f4455966fa7064837b64279cd944a6ae464736f6c63430008040033",
  "linkReferences": {},
  "deployedLinkReferences": {}
}